:020000040000fa
:080000000002040000000000f2
:020000040000fa
:10000800a6020000a6020000a6020000a602000048
:10001800a6020000a6020000a6020000a602000038
:10002800a6020000a6020000a6020000a602000028
:10003800a6020000a6020000a6020000a602000018
:1000480028610000a6020000a6020000a602000027
:10005800a6020000a6020000a6020000a6020000f8
:10006800a6020000a6020000a6020000a6020000e8
:10007800a6020000a6020000a6020000a6020000d8
:10008800a6020000a6020000a6020000a6020000c8
:10009800a6020000a6020000a6020000a6020000b8
:1000a800a6020000a6020000a6020000a6020000a8
:1000b800a6020000a6020000a6020000a602000098
:1000c800a6020000a6020000a6020000a602000088
:1000d800a6020000a6020000a6020000a602000078
:1000e800a6020000a6020000a6020000a602000068
:1000f800a6020000a6020000a6020000a602000058
:10010800a6020000a6020000a6020000a602000047
:10011800a6020000a6020000a6020000a602000037
:10012800a6020000a6020000a6020000a602000027
:10013800a6020000a6020000a6020000a602000017
:10014800a6020000a6020000a6020000a602000007
:10015800a6020000a6020000a6020000a6020000f7
:10016800a6020000a6020000a6020000a6020000e7
:10017800a6020000a602000092650000a602000088
:10018800a6020000a6020000a6020000a6020000c7
:10019800a6020000a6020000a6020000a6020000b7
:1001a800a6020000a6020000a6020000a6020000a7
:1001b800a6020000a6020000a6020000a602000097
:1001c800a6020000a6020000a6020000a602000087
:1001d800a6020000a6020000a6020000a602000077
:1001e800a6020000a6020000a6020000a602000067
:0801f800a6020000a6020000af
:020000040000fa
:10020800a6020000a6020000a6020000a602000046
:10021800a6020000a6020000a6020000a602000036
:10022800a6020000a6020000a6020000a602000026
:10023800a6020000a6020000a6020000a602000016
:1002480028610000a6020000a6020000a602000025
:10025800a6020000a6020000a6020000a6020000f6
:10026800a6020000a6020000a6020000a6020000e6
:10027800a6020000a6020000a6020000a6020000d6
:10028800a6020000a6020000a6020000a6020000c6
:10029800a6020000a6020000a6020000a6020000b6
:1002a800a6020000a6020000a6020000a6020000a6
:1002b800a6020000a6020000a6020000a602000096
:1002c800a6020000a6020000a6020000a602000086
:1002d800a6020000a6020000a6020000a602000076
:1002e800a6020000a6020000a6020000a602000066
:1002f800a6020000a6020000a6020000a602000056
:10030800a6020000a6020000a6020000a602000045
:10031800a6020000a6020000a6020000a602000035
:10032800a6020000a6020000a6020000a602000025
:10033800a6020000a6020000a6020000a602000015
:10034800a6020000a6020000a6020000a602000005
:10035800a6020000a6020000a6020000a6020000f5
:10036800a6020000a6020000a6020000a6020000e5
:10037800a6020000a602000092650000a602000086
:10038800a6020000a6020000a6020000a6020000c5
:10039800a6020000a6020000a6020000a6020000b5
:1003a800a6020000a6020000a6020000a6020000a5
:1003b800a6020000a6020000a6020000a602000095
:1003c800a6020000a6020000a6020000a602000085
:1003d800a6020000a6020000a6020000a602000075
:1003e800a6020000a6020000a6020000a602000065
:0803f800a6020000a6020000ad
:020000040000fa
:100400000f1e21000e7f22000e0188000000000058
:10041000000020000000e000020032000001200087
:10042000200288000c000700e048260001002000a0
:1004300011000700000020000000e0000200320070
:10044000000002000000000026640200000000001e
:100450000040da000000fe004440a900400c2000eb
:100460000000e0000300320000002000a00188002e
:100470004440a80000000600910188008000780038
:100480000000eb0015003700e280400032a0b4000d
:100490009101ba00e280400032a0b4009102ba009b
:1004a000e280400032a0b4000002eb00472bde00e7
:1004b000f507b200602ce10004003a000059eb009f
:1004c0008301e900fdff3e00040037006128e100e0
:1004d000010032000082eb00040007001101ba00a5
:1004e0000200e000e8ff3a00000006003159ba00bf
:1004f0008301e9000c0032002159ba008301e900b0
:10050000080032000400e00003003a00e2804000ee
:1005100032a0b400f5ff370011d9ba008301e90019
:10052000faff3a008100e800e180400032a0b40008
:1005300000000600000000000000000000000000b5
:100540000000000000000000000000000040da0091
:100550000000fe00889fbe008004780030498000c3
:10056000e00f500004003a000e0007000084eb008a
:10057000e00f50000800350038498000e08f54003b
:10058000050032000900440006000700e00f50009b
:1005900001003d000084eb00080078004f04be001d
:1005a00000000600e00f500004003a0004a1200003
:1005b0003449880000027800060037000082eb0012
:1005c000051e2100850f500002003e0030498800c2
:1005d0000002eb0004007800000006006491200097
:1005e000e4874700b5488000889fbe008a9fbe0010
:1005f0008c9fbe008e1f7800e08f52000b003a00e7
:1006000024029800e402420014498800b54888009a
:1006100025498800a44290000504a00025429800c6
:10062000e44290000504a000654298006704400081
:1006300004a12000250020004244de00091e210004
:100640004244dd0084845400050744001100090081
:100650008504d8003c1e2100124980000406560083
:1006600080bf9f000e0747000003eb00e405440035
:100670000806460002003700160020000d01780031
:100680002242900061026200020032000a0037003c
:1006900015097800920278002542900061026200fc
:1006a000fbff320008024100848f52000200390033
:1006b000e00f54003f003d00920678000d00a100bd
:1006c000828f5600edff3e00e10f5300eaff3a0033
:1006d0000fba9700840f540002003600890f5400af
:1006e00010003900614ab900b0ff2f00010020005e
:1006f0006143b8000402500085825800840f530003
:10070000858f5b00020035000b057800060037007e
:10071000110009000986d8000982b9000405780093
:10072000010037000e0578000a00780089ff0700f5
:10073000e10f400005003a000b0578000b0078003f
:1007400084ff0700e10f40002b00320024498000a5
:10075000000a78002449800064034200a44290000b
:10076000860f5000020032000504a000010037008f
:100770000504a100254298006405550064912000fd
:100780000a0540000a0878002a498800040d78000c
:10079000254980000003eb00254290000404a000de
:1007a000a4429800204290000404a1002440980034
:1007b000b2ff370014498800848f520007003600ca
:1007c0001403be008042eb00f64888000749880009
:1007d000120a7800144980002542980022429000b5
:1007e000174980000404a0000709780024419800fc
:1007f00064004100010037000000eb004f07780063
:100800004f06be004f05be004f04be004f00b100b2
:1008100000000600e00f50000800320064005000a5
:1008200014498000840f50000100310010498800f5
:10083000204290000404a10024409800000006001b
:10084000889fbe00000478008a9fbe008104780063
:10085000e08f540005003a00e00f540032003200ef
:1008600008007800ebff070030003700e00f54006d
:1008700004003a000900780058ff0700800478005f
:100880002a003700640254009405780068fa970043
:10089000610262000200320008007800ddff0700fc
:1008a000090078004dff070080047800e08f5400b5
:1008b0001e003200888f54001b00320069bd970073
:1008c0008885550009055500c2ddde0042d5de00f1
:1008d0000a0178008b0f5500010036000b017800eb
:1008e0004211dd008800780009007800130007003d
:1008f000888f54000d0031004255dd000a85440008
:10090000880f55000900360008045500f44880009f
:100910000549800042c4de004244dd0008844400f2
:10092000048cbe00010037008804780009007800bc
:100930004f05be004f04be00000006000002780014
:1009400002003700315a78000201e900e00f51003f
:10095000fcff3a00000006000002780002003700a9
:10096000015a78000201e900e00f5100fcff3a0053
:04097000000006007d
:020000040000fa
:100974000400000061410000050000006242000024
:100984000600000063430000070000006444000008
:1009940008000000654500000900000066460000ec
:1009a4000a000000674700000b00000068480000d0
:1009b4000c000000694900000d0000006a4a0000b4
:1009c4000e0000006b4b00000f0000006c4c000098
:1009d400100000006d4d0000110000006e4e00007c
:1009e400120000006f4f0000130000007050000060
:1009f4001400000071510000150000007252000044
:100a04001600000073530000170000007454000027
:100a1400180000007555000019000000765600000b
:100a24001a000000775700001b00000078580000ef
:100a34001c000000795900001d0000007a5a0000d3
:100a44001e000000312100001f00000032400000a1
:100a540020000000332300002100000034240000a3
:100a6400220000003525000023000000365e00004f
:100a7400240000003726000025000000382a00006a
:100a8400260000003928000027000000302900005b
:100a94002d0000002d5f00002e0000003d2b000003
:100aa4002f0000005d7d0000300000005b7b000033
:100ab400310000005c7c000032000000607e000019
:100ac400330000003b3a00003400000027220000fd
:100ad40035000000607e0000360000002c3c000061
:100ae400370000002e3e0000380000002f3f0000b9
:080af4002c000000202000008e
:020000040000fa
:100afc000400fa002047980031479800f587200041
:100b0c00954278002e42900084cf520002003200b1
:100b1c0064c0b300120037003e409000f50a070095
:100b2c0000027800040f78001e027800e00f5200db
:100b3c000a0032009e027800150290000450a100b9
:100b4c00940298009e027800150290000460a100a7
:100b5c00940298000042eb000100370044c1b3003e
:100b6c00044078000080fa00000006000200fa0041
:100b7c00004f7800644480004622de00614262002f
:100b8c000482fb0004f0a7000402ea000402ea005d
:100b9c004f22de0004427800044078000080fa0006
:100bac00000006000200fa00004f78009543800018
:100bbc0004f0200004826200e00f520002003a00b0
:100bcc0014c3b300190037009543800004f02000d3
:100bdc008482620004402000848f520009003a0095
:100bec0095438000040f200004826200f00f520035
:100bfc0002003a00a4c3b3000c00370004c3b300d6
:100c0c000a0037009543800004f0200084826200c3
:100c1c0004502000848f520003003a000488200006
:100c2c00144278000100370024c3b300044078005c
:100c3c000080fa00000006000400fa00008fbe00dd
:100c4c0054448000e00f52000d003a0020022000b6
:100c5c005ffe070000027800544488005444800072
:100c6c00e00f520002003a000042eb001500370082
:100c7c00544480008002eb00050a78000100370024
:100c8c00320d070054448000544388000002eb00ee
:100c9c00944388000082eb00a44388000042eb00e0
:100cac0004437800e5872000864a78000042eb0078
:100cbc0004437800f5872000864a78008e08a80047
:100ccc0014c0b300044078000080fa000000060055
:100cdc001400fa006047980071479800024f980082
:100cec00530798006407980075079800060f980042
:100cfc0027579800f5872000954278006e429000a7
:100d0c0084cf52000200320064c0b300a60037004a
:100d1c009543800004f0200084826200044020008f
:100d2c00848f52000200320014c0b3009e003700c2
:100d3c00544480009402900004202000048262003d
:100d4c00e00f520002003a0004c1b30096003700d5
:100d5c000e4a9000eb4f520042003a00444480008f
:100d6c0014079800030037001e02900094027800cc
:100d7c00150798001e029000e00f5200060032008a
:100d8c001e029000644290008482fb006e02900070
:100d9c00848f5200f4ff3a001e029000e00f5200c4
:100dac00040032001e02900024029000e00f52005a
:100dbc0002003a0034c0b3007b0037001e029000e2
:100dcc0024029000a4029000050f78000a0037005e
:100ddc001e0278009402900004202000048262001d
:100dec00e00f520002003a0034c0b3006e0037002e
:100dfc001e027800140f78001e027800e00f5200db
:100e0c00f3ff3a001e029000940290002507980010
:100e1c00030037002e0290009402780025079800fa
:100e2c002e029000e00f5200060032002e029000bd
:100e3c00244290008482fb005e029000848f52005a
:100e4c00f4ff3a002e029000e00f520002003a002c
:100e5c0034c0b300540037001e029000ae02900064
:100e6c00250298000e4a9000e14f52000e003a0005
:100e7c005e029000e00f52000b003a007e429000a0
:100e8c000482fb0060024200e20f520005003e00ab
:100e9c006e02900004427800044078007b1007003a
:100eac00010037000000000084438000fe429000e7
:100ebc00054a7800844380000402e8008e4a9000c2
:100ecc00054a7800844380000482e800de0290002a
:100edc0085427800054a7800844380006302420012
:100eec00de029000c82ade0085427800054a7800b0
:100efc008443800064024200ee0290008542780038
:100f0c00054a78008443800065024200ee0290009e
:100f1c00c82ade0085427800054a780084438000a8
:100f2c0066024200fe02900085427800054a780075
:100f3c008443800067024200fe029000c82ade0053
:100f4c0085427800054a7800544480008efa970058
:100f5c00155a98002e529000e04f520009003a00aa
:100f6c0086438000554480007e0290008e099000dc
:100f7c00820020008600780005007800d90c07005c
:100f8c000800370086438000554480007e029000a4
:100f9c008e09900082002000860078000500780001
:100fac00930c07000042eb00044078000080fa002c
:100fbc00000006000a00fa0020479800314798000c
:100fcc00220798003407980045079800f587200001
:100fdc00954278002e42900084cf520002003200dd
:100fec0064c0b3003d0037009543800004f020003e
:100ffc008482620004402000848f52000200320080
:10100c0014c0b300350037003e409000b90907000a
:10101c0000027800040f78001e027800e00f5200e6
:10102c002d0032001e027800d40a900004302000fb
:10103c0004826200e00f520002003a0084c1b30047
:10104c00260037001e027800245a9000e04f520010
:10105c000200350054c1b300200037001e02780096
:10106c00940290000402200004826200e00f5200ff
:10107c000200320014c1b300180037001e027800c1
:10108c00940290000404200004826200e00f5200dd
:10109c000200320024c1b300100037001e02780099
:1010ac00940290000420200004826200e00f5200a1
:1010bc0002003a0004c1b300080037003e02900061
:1010cc0004017800ae0090001e007800c90c0700e7
:1010dc000042eb000100370044c1b300044078002b
:1010ec000080fa00000006000200fa00004f7800b1
:1010fc00f4872000144278009e4f52000200320008
:10110c0064c0b3000a0037009543800004f020004f
:10111c0004826200e00f520002003a0034c0b300b7
:10112c00030037000002eb00944388000042eb0000
:10113c00044078000080fa00000006000200fa006b
:10114c00004f7800f4872000144278009e4f520024
:10115c000200320064c0b3000a00370095438000df
:10116c0004412000848f52000200320034c0b300ce
:10117c0004003700944380000402e8009443880084
:10118c000042eb00044078000080fa0000000600ea
:10119c000200fa00004f780011479800f4872000f5
:1011ac00144278009e4f52000200320064c0b3001b
:1011bc00170037009543800004f020008482620001
:1011cc0004402000848f52000200320014c0b3008f
:1011dc000f003700e110070000427800e04f52008a
:1011ec000200320024c0b300090037009e42900078
:1011fc00c4872000054a78005444800080c2eb006c
:10120c00155a980004332000944388000042eb00e8
:10121c00044078000080fa00000006000800fa0084
:10122c002047980031479800220798003307980010
:10123c00f5872000954278002e42900084cf520012
:10124c000200320064c0b3001b0037003e40900027
:10125c002809070000027800040f78001e027800ad
:10126c00e00f5200130032002e029000044278006e
:10127c006142620061426200614262009e0278003b
:10128c000482fb00610262004d22dd009503900098
:10129c00f6ff2d000683630006027200940298008c
:1012ac001e027800be029000051298000042eb006e
:1012bc000100370044c1b300044078000080fa00fc
:1012cc00000006000200fa000002eb004424880033
:1012dc00f487200014427800e04f520011003200d5
:1012ec000042eb00044f7800f6872000164378008c
:1012fc0024002000050020000e017800a10620002b
:10130c0006407800582d0700f4872000144278001e
:10131c0013002000f2872000110720000440780001
:10132c00c20c07006000b80043fe07000080fa0002
:10133c00000006000200fa00004f7800f48720003d
:10134c00144278009e4f52000200320064c0b30079
:10135c000a0037009543800004402000848f52001f
:10136c000200320034c0b300040037009404a9001a
:10137c0004412000944388000042eb0004407800b4
:10138c000080fa00000006000800fa00881f7800b0
:10139c00a4438000e10f420004003200a44380000b
:1013ac00944388000082eb00a4438800954380009e
:1013bc0004f020000482620005202000850f5200fa
:1013cc007402320005202000850f520006003e00fa
:1013dc00e00f52000e00320005102000850f520065
:1013ec00bd0032005f06370005402000850f52001b
:1013fc00a905320005502000850f5200da05320095
:10140c0005302000850f5200cb0232005506370004
:10141c0095438000040f200004826200f00f5200fc
:10142c0075003200f00f520003003e00e00f520036
:10143c00080032004b06370005022000850f5200d1
:10144c007800320005032000850f5200a000320006
:10145c00440637009bff0700544480008002eb00d9
:10146c00050a7800544480008002eb0015029800b5
:10147c00554480001502900004a0a000940298002e
:10148c0055448000150290000490a000940298002e
:10149c00554480001502900004d0a00094029800de
:1014ac0054448000450120000512980054448000eb
:1014bc000504200045029800564480006022b800c4
:1014cc00040b9800150b9800544480008042eb00ec
:1014dc00255a9800544480008042eb00055a98002d
:1014ec0055448000550a90000480a1000490a1008e
:1014fc00d40a98005444800080c2eb00155a98001e
:10150c0034c0b3000443780065862000864a780016
:10151c000042eb0004437800c5872000864a78001f
:10152c000042eb0004437800d5872000864a7800ff
:10153c000042eb0004437800e5872000864a7800df
:10154c000002eb00644488000002eb004444880075
:10155c000002eb00b44388000002eb006424880016
:10156c00f40f20005424880015248000c4082000a7
:10157c000482620014248800d4072000042488000c
:10158c000002eb0084248800f40f200074248800ef
:10159c0004a020004822de00c4248800840020001f
:1015ac00a4248800a4002000a42488008400200027
:1015bc00a424880004032000342488002400200084
:1015cc00342588000002eb00442588000002eb0063
:1015dc00b4248800aae4a900a404200004258800ef
:1015ec009543800004ff20000482620070024200d8
:1015fc009443880037003700e488200014427800b8
:10160c0061426200e04f52000500320095438000b9
:10161c0004ff2000048262007002420094438800a0
:10162c002c0037000042eb006447980024c3b30041
:10163c007447980066034700240020000500200032
:10164c00060178009106200000c0eb00862c0700f4
:10165c0000427800e04f52001900320014002000c4
:10166c004424880075048000f4fb2f00048262007f
:10167c007404880075068000f40f2f000482620049
:10168c007406880075068000046020000502720054
:10169c0074068800f5048000040420000502720022
:1016ac00f40488009543800004ff2000048262004b
:1016bc0070024200944388008cc4a80003003700d9
:1016cc008e08a90004012000944388000100370013
:1016dc0000000000a305370095438000040f200094
:1016ec000482620005022000850f5200b200320015
:1016fc0005022000850f520005003e00e00f52004d
:10170c000a003200f00f5200250032009505370018
:10171c0005032000850f52003c0132000504200017
:10172c00850f5200930132008e05370094438000e0
:10173c006f026200e10f520011003200e10f520003
:10174c0003003900e20f52000e0032001300370084
:10175c0014002000542488008c04a800b40f20002e
:10176c0044438800040420000424880082c4a80098
:10177c00944380000402e80094438800070037007b
:10178c00060037009543800004ff200004826200ad
:10179c007002420094438800000000007c01370076
:1017ac00944380006f026200050020004600200078
:1017bc0007002000860f5200878f5a007c003e00e5
:1017cc00046001000400370062003700620037003b
:1017dc006c0037006c00370084438000e00f52002f
:1017ec0005003200844380000400780006fc0700ea
:1017fc000002eb00844388008000200074fb07008b
:10180c00000278008443880084438000e00f52007b
:10181c0007003a0034c3b300044378000588200065
:10182c00864a7800045020009443880061003700f9
:10183c000042eb0004437800c5872000864a7800fc
:10184c000042eb0004437800d5872000864a7800dc
:10185c000002eb006444880034c0b30004437800f9
:10186c0055862000864a7800d40020005425880034
:10187c000002eb00642588000002eb007425880050
:10188c000002eb00842588000002eb009425880000
:10189c000002eb00a42588000002eb00b4258800b0
:1018ac000002eb00c42588000002eb00d425880060
:1018bc000002eb00e42588000002eb00f425880010
:1018cc000002eb00042688000002eb0014268800be
:1018dc000002eb00242688000002eb00342688006e
:1018ec000002eb0044268800a52480000408200098
:1018fc0004826200e00f520008003a008c08a80035
:10190c0004c8b30004437800e5872000864a7800b9
:10191c0004082000b4248800aae4a8009424a80099
:10192c009424a9008c88a9008ca8a9009484a800f0
:10193c00340320004443880004042000042488005d
:10194c0082c4a800944380000402e80094438800f9
:10195c0018003700170037009484a9009404a800dd
:10196c00b4002000444388000404200004248800b0
:10197c0082c4a800944380000402e80094438800c9
:10198c000c0037000b003700f400200064248800a2
:10199c00f40f2000842488009543800004ff20006d
:1019ac0004826200700242009443880001003700f8
:1019bc0000000000f6003700944380006f026200c4
:1019cc00e10f520039003200e10f520003003900e0
:1019dc00e20f5200530032008b003700744380003a
:1019ec00e00f5200050032007443800004007800c0
:1019fc0085fb07000002eb007443880084438000e1
:101a0c0005c8b300054a7800844380000402e8004e
:101a1c0065c0b300054a7800844380000482e80066
:101a2c008042eb00054a7800844380006302420048
:101a3c0015c0b300054a780084438000640242005c
:101a4c008042eb00054a7800844380006502420026
:101a5c008042eb00054a7800844380006602420015
:101a6c0085c0b300054a78008443800067024200b9
:101a7c008042eb00054a7800874380008643800053
:101a8c0055448000840020008701780082002000eb
:101a9c008600780005007800d50907009443800083
:101aac000402e80094438800570037005444800037
:101abc00940290000420200004826200e00f520087
:101acc00170032005444800094029000041020004f
:101adc0004826200e00f5200100032008443800048
:101aec006402420014427800e94f520007003a00a9
:101afc0054c3b3000443780005882000864a78005c
:101b0c000450200094438800050037009443800063
:101b1c000402e80094438800010037006b050700bd
:101b2c003900370084438000144278000482fb00a3
:101b3c0004007800a6fa07000002780074438800bd
:101b4c0074438000e00f520007003a0034c3b30026
:101b5c000443780005882000864a78000450200051
:101b6c00944388002800370074438000854380002c
:101b7c0095427800054a78005444800085438000e3
:101b8c00f54290008582fb0045029800844380005a
:101b9c00040078001cfb07000002eb008443880063
:101bac0054448000440290000400780088fa070036
:101bbc00000278008443880084438000e00f5200c8
:101bcc0007003a0034c3b3000443780005882000b2
:101bdc00864a780004502000944388000a0037009d
:101bec0034c0b3000443780055862000864a780040
:101bfc009543800004ff20000482620070024200c2
:101c0c00944388000000000061003700944380007a
:101c1c006f026200e10f520039003200e10f5200f6
:101c2c0003003900e20f5200470032005000370029
:101c3c00b443800070026200e00f520001003200d9
:101c4c004b0037008443800005c8b300054a780078
:101c5c00844380000402e80065c0b300054a7800a4
:101c6c00844380000482e8008042eb00054a78003f
:101c7c00844380006302420015c0b300054a78001b
:101c8c0084438000640242008042eb00054a7800e5
:101c9c0084438000650242008042eb00054a7800d4
:101cac0084438000660242007543800095427800b0
:101cbc00054a780084438000670242008042eb00b2
:101ccc00054a780074438000144278000482fb00bb
:101cdc00774380008643800055448000870178005c
:101cec00820020008600780005007800400907007b
:101cfc00944380000402e800944388001c003700e1
:101d0c00544480009402900004202000048262005d
:101d1c00e00f52000b0032005444800094029000fb
:101d2c000410200004826200e00f52000400320014
:101d3c00944380000402e8009443880001003700bb
:101d4c00e20407000a00370034c0b30004437800f3
:101d5c0055862000864a78009543800004ff2000b9
:101d6c00048262007002420094438800000000006c
:101d7c0007003700800507009543800004f0200021
:101d8c00048262000410b00094438800000000003c
:101d9c00f403370095438000040f20000482620096
:101dac00e00f5200ec033a00944380006f02620093
:101dbc00e10f520035003200e10f520003003900f0
:101dcc00e20f5200430032005900370014c0b30038
:101ddc0004437800f5872000864a7800844380000d
:101dec008042eb00054a7800844380000402e8003e
:101dfc0055c0b300054a7800844380000482e80093
:101e0c00f587200095427800054a780084438000cd
:101e1c00630242008042eb00054a78008443800054
:101e2c00640242008042eb00054a78008443800043
:101e3c00650242008042eb00054a78008443800032
:101e4c00660242008042eb00054a78008443800021
:101e5c00670242008042eb00054a7800864380000e
:101e6c00554480000002eb008001eb008200200052
:101e7c0086007800050078001a090700944380005a
:101e8c000402e80094438800290037005444800081
:101e9c00940290000420200004826200e00f5200a3
:101eac002200320054448000940290000410200060
:101ebc0004826200e00f5200040032009443800060
:101ecc000402e80094438800190037007f040700df
:101edc0017003700644480000442780061426200bd
:101eec000482fb004722dd0084427800f487200046
:101efc001442780004c2720004437800e587200085
:101f0c00864a780034c0b30004437800558620001c
:101f1c00864a78009543800004f020000482620019
:101f2c000410b0009443880001003700000000004a
:101f3c00000000008b03370095438000040f200045
:101f4c000482620005022000850f5200cf0032008f
:101f5c0005022000850f520005003e00e00f5200e4
:101f6c000a003200f00f5200280032007d033700c7
:101f7c0005032000850f52003101320005042000ba
:101f8c00850f5200ef013200760337007443800056
:101f9c00145290000443780045862000864a78004d
:101fac00110037003444800014029000240798007c
:101fbc0034448000140278000400780012fa070000
:101fcc00344480008002eb00050a78003444800021
:101fdc00040078000cfa07000002eb00344488007f
:101fec002e0290003444880034448000e00f5200ec
:101ffc00ecff3a009543800004ff2000048262004d
:10200c007002420094438800a2023700944380007f
:10201c006f026200e10f520031003200e10f5200fa
:10202c0003003900e20f52003f00320096003700e7
:10203c008443800005c8b300054a780084438000bf
:10204c000402e80065c0b300054a780084438000b0
:10205c000482e8008042eb00054a7800844380004b
:10206c006302420025c0b300054a78008443800017
:10207c00640242008042eb00054a780084438000f1
:10208c00650242008042eb00054a780084438000e0
:10209c006602420085c0b300054a78008443800084
:1020ac00670242008042eb00054a780087438000bb
:1020bc00864380005544800084002000870178000e
:1020cc008200200086007800050078004808070090
:1020dc00944380000402e800944388006a003700af
:1020ec00544480009402900004202000048262007a
:1020fc00e00f52000b003200544480009402900018
:10210c000410200004826200e00f52000400320030
:10211c00944380000402e8009443880001003700d7
:10212c00ea030700580037006000200028f9070078
:10213c0000027800240798002e029000e00f520055
:10214c0007003a0034c3b30004437800058820002c
:10215c00864a780004502000944388004a003700d7
:10216c002e049000844380006302420014427800e5
:10217c000482fb00c822dd00844380000482e80056
:10218c00144278000482fb000482420004007800b0
:10219c000ff9070000027800040c78001802780090
:1021ac00e00f52000b003a002e00900096f9070049
:1021bc000002eb002407980034c3b30004437800fa
:1021cc0005882000864a780004502000944388003b
:1021dc002d0037002e0290001402780085438000f9
:1021ec00e3824200954278008582fb00482bdd009b
:1021fc00854380008582e800954278008582fb004b
:10220c0085024300f60f200006836200a443900071
:10221c00e0c3630006c3730026429800c82ade00a0
:10222c00344390006043630085427300354298004c
:10223c002e02900035448000150298002e0290006a
:10224c00344488002e029000140278006443880005
:10225c002e02900045862000954278004542980059
:10226c0034c0b3000443780055862000864a7800b9
:10227c009543800004ff200004826200700242003b
:10228c009443880000000000020237009443800051
:10229c006f026200e10f52003f003200e10f52006a
:1022ac0003003900e20f52004d003200630037008a
:1022bc008443800005c8b300054a7800844380003d
:1022cc000402e80065c0b300054a7800844380002e
:1022dc000482e8008042eb00054a780084438000c9
:1022ec006302420025c0b300054a78008443800095
:1022fc00640242008042eb00054a7800844380006f
:10230c00650242008042eb00054a7800844380005d
:10231c006602420035448000950278008582e80010
:10232c0095427800054a7800844380006702420099
:10233c003544800095027800e38242009542780093
:10234c00054a78003444800014027800a4429000be
:10235c008582fb00344290000482fb004822dd00a1
:10236c000482720035448000950378008643800017
:10237c005544800087017800820020008600780098
:10238c00050078009a070700944380000402e800d7
:10239c009443880029003700544480009402900034
:1023ac000420200004826200e00f52000b00320077
:1023bc0054448000940290000410200004826200b7
:1023cc00e00f520004003200944380000402e80045
:1023dc0094438800010037003c03070017003700c6
:1023ec0034c0b3000443780055862000864a780038
:1023fc0044862000144278000442e900044378002b
:10240c0045862000864a78004486200014427800d5
:10241c00e04f520003003200043120009443880046
:10242c00050037009543800004ff20000482620001
:10243c0070024200944388000000000095013700b0
:10244c00944380006f0262000500200036002000db
:10245c0007002000860f5200878f5a00b7003e00fd
:10246c0004600100030037004b003700890037007f
:10247c009a003700f8060700c48720001442780041
:10248c00e04f520012003a0034448000944488001b
:10249c000b003700944480001402780064438800d9
:1024ac00d108070000427800e04f520023003a00a8
:1024bc00e9060700944480001402900094448800bc
:1024cc0094448000e00f5200f2ff3a001c003700e9
:1024dc003444800094448800030037009444800006
:1024ec00140290009444880094448000e00f520041
:1024fc000600320094448000c4429000c48720003f
:10250c001442780084cf5200f4ff3a0094448000c7
:10251c001402780064438800b30807000042780076
:10252c000404a200e04f520005003200ca06070066
:10253c000002eb009444880001003700000000000a
:10254c006444800064026200e00f52000e0032000e
:10255c0094448000e00f520007003a0044c3b300db
:10256c000443780005882000864a78000450200037
:10257c009443880007003700944380000402e8006d
:10258c009443880003003700944380000402e80061
:10259c00944388006a00370064448000640262003f
:1025ac00e00f520035003a008c48a80084438000ac
:1025bc008042eb00054a7800844380000402e80066
:1025cc0035c0b300054a780064448000680262009c
:1025dc00e00f520005003200844380000482e800c2
:1025ec0035c0b300054a78000400370084438000ee
:1025fc000482e80045c0b300054a7800844380009b
:10260c00630242008042eb00054a7800844380005c
:10261c00640242008042eb00054a7800844380004b
:10262c00650242008042eb00054a7800844380003a
:10263c00660242008042eb00054a78008443800029
:10264c00670242008042eb00054a78008643800016
:10265c00554480000002eb008001eb00820020005a
:10266c0086007800050078001e0707009443800060
:10267c000402e8009443880005003700954380006d
:10268c0004ff200004826200700242009443880020
:10269c002b0037005444800094029000042020004a
:1026ac0004826200e00f52000b00320054448000a0
:1026bc00940290000410200004826200e00f52008b
:1026cc0004003200944380000402e8009443880024
:1026dc00010037007d0207001900370034c0b30039
:1026ec000443780055862000864a78009444800084
:1026fc00e00f520007003a0044c3b30004437800d3
:10270c0005882000864a78000450200094438800f5
:10271c000900370034c0b30004437800558620000c
:10272c00864a78009543800004ff200004826200f2
:10273c007002420094438800010037000000000042
:10274c00d4003700944380006f0262000500200023
:10275c003600200007002000860f5200878f5a0099
:10276c00ca003e0004600100030037002e00370051
:10277c003f00370046003700844380008042eb0066
:10278c00054a7800844380000402e80095c0b30039
:10279c00054a7800844380000482e800c587200045
:1027ac0095427800054a7800844380006302420019
:1027bc008042eb00054a78008443800064024200aa
:1027cc008042eb00054a7800844380006502420099
:1027dc008042eb00054a7800844380006602420088
:1027ec008042eb00054a7800844380006702420077
:1027fc008042eb00054a78008643800055448000f7
:10280c000002eb008001eb008200200086007800c3
:10281c0005007800b3060700944380000402e8002a
:10282c00944388009a00370054448000940290002e
:10283c000420200004826200e00f52000b003200e2
:10284c005444800094029000041020000482620022
:10285c00e00f520004003200944380000402e800b0
:10286c0094438800010037001802070088003700e5
:10287c0034c0b3000443780055862000864a7800a3
:10288c00944380000402e8009443880080003700e1
:10289c009543800004f02000048262000410b00014
:1028ac009443880065448000040420000482620084
:1028bc00e00f5200230032001488200014427800ec
:1028cc00244798002e4290000482fb006a22b90033
:1028dc0084027800c48e20000482420094037800a5
:1028ec002e4290000482fb006a22b9000402780098
:1028fc00e6024200c48e2000048242001402be0094
:10290c00f687200016437800ae4090000401be000c
:10291c000640780007000100004278000404a20081
:10292c00e04f52003100320094c3b30004437800ee
:10293c0005882000864a78000450200094438800c3
:10294c002a00370044448000040f7800240037002c
:10295c001e027800f4429000254798002e42900009
:10296c000482fb006a22b90084027800c48e200025
:10297c0004824200940378002e4290000482fb00f3
:10298c006a22b90004027800e6024200c48e2000dc
:10299c00048242001402be00f68720001643780021
:1029ac00ae4090000401be00064078000700010014
:1029bc00004278000404a200e04f520006003200ee
:1029cc0094c3b3008442780006882000054b78003d
:1029dc0004502000944388001e027800140f7800e5
:1029ec001e027800e00f5200d9ff3a0065448000c7
:1029fc000408200004826200e00f52002200320022
:102a0c002688200016437800264798002e42900016
:102a1c000482fb006a22b90084027800c48e200074
:102a2c0004824200940378002e4290000482fb0042
:102a3c006a22b90004027800e6024200c48e20002b
:102a4c00048242001402be00f68720001643780070
:102a5c00ae4090000401be00064078000700010063
:102a6c00004278000404a200e04f5200060032003d
:102a7c0094c3b3000443780005882000864a78008c
:102a8c00045020009443880001003700000000002f
:102a9c0000000000b300370095438000040f2000b5
:102aac0004826200e00f520003003200f00f52006b
:102abc0002003200ab0037002a003700944380003c
:102acc006f02620005002000560020000700200065
:102adc00860f5200878f5a00a1003e00046001004f
:102aec0005003700050037000e0037000e003700d8
:102afc0018003700180037001a0037009444a8005b
:102b0c00540120004443880004042000042488005d
:102b1c0082c4a800944380000402e8009443880017
:102b2c00100037000f0037009444a9009404a8004b
:102b3c00b4002000444388000404200004248800ce
:102b4c0082c4a800944380000402e80094438800e7
:102b5c000400370003003700044020009443880031
:102b6c00000000007f00370095438000040f200018
:102b7c0004826200e00f520074003a0084002000ce
:102b8c00a42488000002eb0064248800f40f2000c9
:102b9c005424880015248000c4082000048262009c
:102bac0014248800d4072000042488000002eb00c1
:102bbc0084248800f40f2000742488008c04a8005e
:102bcc0004882000144278000482fb006123b900c1
:102bdc0094ff2f00f5ff2f000602420087824a0067
:102bec002603200007002000860f5200878f5a0012
:102bfc0043003e00046001003800370040003700fd
:102c0c003f0037003e0037003d0037003c003700e6
:102c1c003b0037003a0037003900370038003700e6
:102c2c0037003700360037003500370034003700e6
:102c3c0033003700320037003100370030003700e6
:102c4c002f0037002e0037002d0037002c003700e6
:102c5c002b0037002a0037002900370028003700e6
:102c6c0027003700260037002500370024003700e6
:102c7c0023003700220037002100370020003700e6
:102c8c001f0037001e0037001d0037001c003700e6
:102c9c001b0037001a0037001900370018003700e6
:102cac0017003700160037001200370008003700f5
:102cbc0004003700120037001100370010003700f5
:102ccc000900370054c6b300244798000f003700a2
:102cdc00c4c6b300244798000c003700d4c6b30018
:102cec002447980009003700e4c6b3002447980035
:102cfc0006003700f4c6b3002447980003003700e1
:102d0c0004c7b30024479800000000002e42900036
:102d1c008483fb00f6872000164378001400200003
:102d2c0005002000428820008700780006407800cb
:102d3c00cd2607009543800004ff2000048262002a
:102d4c00700242009443880001003700000000002c
:102d5c0000000000030037000000000001003700f5
:102d6c00000000004f0478000080fa00000006000c
:102d7c000400fa002047980031479800f58720009e
:102d8c00954278002e42900084cf520010003a00f9
:102d9c003e4090005702070000027800040f7800b4
:102dac001e027800e00f52000a0032009e027800ea
:102dbc00150290000470a000940298009e02780006
:102dcc00150290000490a0009402980001003700b6
:102ddc00000000000080fa00000006000a00fa0063
:102dec0040479800514798003207980043079800d5
:102dfc00f5872000954278004e42900084cf520017
:102e0c00080032003e02900065c0b300054a78000d
:102e1c004e0390006022b800048bbe0014c0b300b7
:102e2c003d0037005e40900032020700000278003f
:102e3c00040f78001e027800e00f520032003200be
:102e4c001e027800140290004922de0061426200ea
:102e5c00244798001e027800940290000410200071
:102e6c0004826200e00f5200090032003e02900022
:102e7c008042eb00054a78001e027800940a90000c
:102e8c00040a90004e039000048bbe00180037001b
:102e9c001e0278009402900004022000048262005a
:102eac00e00f5200040032003e02900015c1b30046
:102ebc00054a78000e0037001e027800940290003c
:102ecc000404200004826200e00f5200050032006e
:102edc001e027800c45a90003e029000054a780009
:102eec00030037003e02900095c1b300054a7800fc
:102efc002e4290000482fb000402ea004f22de0006
:102f0c0004427800040037003e02900045c1b30033
:102f1c00054a780014c0b300044078000080fa0021
:102f2c00000006000400fa00000f7800214798000a
:102f3c00324798002e429000e14f420012003a00b6
:102f4c003e429000e04f52000f003a0084062000f1
:102f5c009e027800848f520004003a00d9f80700d2
:102f6c008e08a9000042eb0008003700b4062000d0
:102f7c009e027800848f520003003a008e08a8004d
:102f8c000042eb000100370034c0b300044078006d
:102f9c000080fa00000006000a00fa0020479800a2
:102fac00314798002207980034079800450798008d
:102fbc00f5872000954278002e42900084cf520075
:102fcc000200320064c0b3003d003700954380001e
:102fdc0004f020008482620004402000848f5200a0
:102fec000200320014c0b300350037003e409000a0
:102ffc00c001070000027800040f78001e02780060
:10300c00e00f52002d0032001e027800d40a90000e
:10301c000430200004826200e00f520002003a00eb
:10302c0084c1b300260037001e027800245a900099
:10303c00e04f520002003d0054c1b30020003700a5
:10304c001e027800940290000402200004826200a8
:10305c00e00f52000200320014c1b3001800370018
:10306c001e02780094029000040420000482620086
:10307c00e00f52000200320024c1b30010003700f0
:10308c001e0278009402900004202000048262004a
:10309c00e00f520002003a0004c1b30008003700f0
:1030ac003e02900004017800ae0090001e007800f3
:1030bc00170507000042eb000100370044c1b300c4
:1030cc00044078000080fa00000006000000fa00be
:1030dc0055438000150290000460a10094029800f2
:1030ec0055438000150290000450a10094029800f2
:1030fc0054862000144278000442e900044378000e
:10310c0055862000864a78005486200014427800a8
:10311c00e04f5200050032009543800004ff2f0061
:10312c0004826200944388001300370064862000f8
:10313c00144278000442e9000443780065862000bc
:10314c00864a78006486200014427800e04f5200d2
:10315c00030032000411200094438800060037005d
:10316c0074c0b3000443780005882000864a7800b8
:10317c0004502000944388000080fa0000000600f0
:10318c001200fa00404f9800514f9800624f98007f
:10319c00030f980074438000140798000002eb00a2
:1031ac00040f78006d0037001e0278004322dd000a
:1031bc00e6024200648f2000048242001402780070
:1031cc000402d10061426200e14f520062003a00f9
:1031dc001e0278004322dd00e6024200648f2000cc
:1031ec0004824200140278004522de006142620033
:1031fc00e04f520008003a001e027800c322dd00a6
:10320c00648f200004824200944278004e4a900061
:10321c0084cf520050003a001e0278004322dd0099
:10322c00e6024200648f20000482420014027800ff
:10323c004422de0061426200e04f520008003a0076
:10324c001e027800c322dd00648f2000048242003d
:10325c00944290005e4a900084cf52003e003a00a7
:10326c001e0278004322dd00e6024200648f20003b
:10327c0004824200140278004322de0061426200a4
:10328c00e04f520009003a001e0278004322dd0094
:10329c008482e800648f200004824200944278000b
:1032ac006e4a900084cf52002b003a001e02900010
:1032bc00844a90008582fb00144a90000482fb0033
:1032cc004822dd0004827200240798001e02900040
:1032dc00a44a90008582fb00344a90000482fb00d3
:1032ec004822dd0004827200340798004e4a900098
:1032fc00044f98005e4a9000144f98006e4a90005c
:10330c00244f98006403470084002000050020002f
:10331c00060178009107200000c0eb005225070041
:10332c00004278000404a200e04f52000a00320070
:10333c001e0278004322dd00e4024200648f20006c
:10334c0004824200944290000e0a9000054a7800d4
:10335c0014c0b300050037001e0fe8001e027800f1
:10336c00e10f520090ff34000042eb000440780063
:10337c000080fa00000006000c00fa007443800084
:10338c00140798000002eb00040f78008cc8a90009
:10339c008ce8a900d00037001e0278004322dd0023
:1033ac00e6024200648f200004824200140278007e
:1033bc000402d10061426200e04f52001e00320054
:1033cc001e027800c322dd00648f200004824200bc
:1033dc00944278001e0290004442900084cf520028
:1033ec0099003a001e027800c322dd00648f200091
:1033fc0004824200944290001e02900054429000bd
:10340c0084cf520090003a001e0278004322dd0067
:10341c008482e800648f2000048242009442780089
:10342c001e0290006442900084cf520086003a0045
:10343c008cc8a800840037001e027800c322dd006f
:10344c00648f200004824200940278001e029000d7
:10345c00044b90000683fb00144a90000482fb008e
:10346c004822dd0004027300848f520038003a00b9
:10347c001e0278004322dd008482e800648f200065
:10348c0004824200940278001e029000244b9000ab
:10349c000683fb00344a90000482fb004822dd00c6
:1034ac0004027300848f520029003a001e02780037
:1034bc004322dd00e6024200648f200004824200b9
:1034cc00140278004722de0061426200e14f520094
:1034dc001e003a008ce8a8001e0278004322dd0092
:1034ec00e4024200648f20000482420014429000e7
:1034fc000443780025882000864a78001e02780054
:10350c004322dd00e6024200648f20000482420068
:10351c00140278004222de0061426200e04f520049
:10352c000b0032001e0278004322dd00e402420050
:10353c00648f200004824200144278000443780017
:10354c00c5872000864a7800010037008cc8a80087
:10355c001e027800c322dd00648f2000048242002a
:10356c0014027800e10f420037003a001e02780086
:10357c004322dd008482e800648f20000482420034
:10358c0014027800e10f42002f003a001e02900056
:10359c00844a90008582fb00144a90000482fb0050
:1035ac004822dd0004827200240798001e0290005d
:1035bc00a44a90008582fb00344a90000482fb00f0
:1035cc004822dd0004827200340798001e02780045
:1035dc00c322dd00648f2000048242001442780074
:1035ec00044f98001e027800c322dd00648f200077
:1035fc000482420014429000144f98001e0278007e
:10360c004322dd008482e800648f200004824200a3
:10361c0014427800244f9800640347008400200073
:10362c0005002000060178009107200000c0eb0087
:10363c008d240700004278000404a200e04f5200e1
:10364c00010032008cc8a8006544800004042000ee
:10365c0004826200e00f52001e0032001e0278004d
:10366c004322dd00e4024200648f20000482420009
:10367c00144290000443780015882000864a780094
:10368c001e0278004322dd00e6024200648f200017
:10369c0004824200140278004222de006142620081
:1036ac00e04f5200090032001e0278004322dd0078
:1036bc00e4024200648f200004824200144278002d
:1036cc0004437800c5872000864a780014c0b300f4
:1036dc00050037001e0fe8001e027800e10f5200b3
:1036ec002dff36000042eb00044078000080fa0009
:1036fc00000006000600fa00404798004e42900079
:10370c00e04f520002003a00544480001f00370082
:10371c004444800014079800180037001e029000e3
:10372c0024029000e00f5200110032001e029000a3
:10373c0024029000a4029000050f780009003700c5
:10374c001e027800a45a90004e42900084cf520082
:10375c0002003a001e0278000c0037001e027800ae
:10376c00140f78001e027800e00f5200f4ff3a00ac
:10377c001e02900094027800150798001e0290001b
:10378c00e00f5200e5ff3a000002eb000400780065
:10379c000080fa00000006000200fa000042eb0074
:1037ac00044f780094438000b443800070026200a0
:1037bc00e00f5200a7013a00b4438000610262009e
:1037cc00e00f52001e013a000040eb00a60107007a
:1037dc0000427800e04f5200180132005443800040
:1037ec00045a90008482fb00040f200004826200c3
:1037fc0005022000850f5200540032000503200002
:10380c00850f5200a9003200f00f5200ff003a0061
:10381c0054438000045a90000482fb006f02620043
:10382c00cfa2de00f600200007002000860f520019
:10383c00878f5a0041003e00046001000f003700e2
:10384c001b0037002d0037003c0037003b003700d1
:10385c003a0037003900370038003700370037009e
:10386c00360037003500370034003700330037009e
:10387c0032003700310037002800370055438000f4
:10388c001502900004b0a10094029800d0c0b300bf
:10389c006006070054438000245a9000d1c0b30046
:1038ac00044078002c0607007608a8006c0137004d
:1038bc005643800054438000940a9000040a900000
:1038cc00540398006503980055438000150290003e
:1038dc0004b0a0009402980090c0b3004d060700fd
:1038ec0054438000245a900091c0b30004407800e7
:1038fc00190607007608a8005901370054438000c8
:10390c008042eb00055a9800554380001502900048
:10391c000490a000940298000b00370054438000e0
:10392c008042eb00055a9800554380001502900028
:10393c000490a000940298000300370014c0b30058
:10394c00044f780000000000b200370054438000a0
:10395c00045a90000482fb006f026200cfa2de00ca
:10396c00f600200007002000860f5200878f5a00b7
:10397c004a003e00046001000f0037001b003700b6
:10398c002300370035003700440037004300370070
:10399c004200370041003700400037003f0037003d
:1039ac003e0037003d0037003c0037003b0037003d
:1039bc003a00370031003700554380001502900063
:1039cc0004b0a10094029800d0c0b3001106070007
:1039dc0054438000245a9000d1c0b30004407800b6
:1039ec00dd0507007608a8001d01370090c0b30064
:1039fc000806070054438000245a900091c0b3007d
:103a0c0004407800d40507007608a800140137009c
:103a1c005643800054438000940a9000040a90009e
:103a2c0054039800650398005543800015029000dc
:103a3c0004b0a0009402980010c0b300f505070074
:103a4c0054438000245a900011c0b3000440780005
:103a5c00c10507007608a800010137005443800017
:103a6c008042eb00055a98005543800015029000e7
:103a7c000490a000940298000b003700544380007f
:103a8c008042eb00055a98005543800015029000c7
:103a9c000490a000940298000300370014c0b300f7
:103aac00044f7800000000005a0037005443800097
:103abc00045a90000482fb006f026200cfa2de0069
:103acc00f600200007002000860f5200878f5a0056
:103adc004a003e00046001000f0037001b00370055
:103aec00230037003500370044003700430037000f
:103afc004200370041003700400037003f003700dc
:103b0c003e0037003d0037003c0037003b003700db
:103b1c003a00370031003700554380001502900001
:103b2c0004b0a10094029800d0c0b300b9050700fe
:103b3c0054438000245a9000d1c0b3000440780054
:103b4c00850507007608a800c500370010c0b30033
:103b5c00b005070054438000245a900011c0b300f4
:103b6c00044078007c0507007608a800bc003700ec
:103b7c005643800054438000940a9000040a90003d
:103b8c00540398006503980055438000150290007b
:103b9c0004b0a0009402980090c0b3009d050700eb
:103bac0054438000245a900091c0b3000440780024
:103bbc00690507007608a800a90037005443800067
:103bcc008042eb00055a9800554380001502900086
:103bdc000490a000940298000b003700544380001e
:103bec008042eb00055a9800554380001502900066
:103bfc000490a000940298000300370014c0b30096
:103c0c00044f7800000000000200370014c0b3001d
:103c1c00044f78001e427800e04f5200070032003b
:103c2c00544380008042eb00055a980055438000b5
:103c3c00150290000490a000940298007608a80049
:103c4c00b443800062026200e00f520083003a002d
:103c5c007900370054438000045a90008482fb00a2
:103c6c00040f20000482620005042000850f52001e
:103c7c000400320005052000850f52002f00320091
:103c8c005c00370054438000045a90000482fb000f
:103c9c006f026200e10f52000c003200ef0f520075
:103cac0016003200e00f520020003a0090c0b30022
:103cbc005805070054438000245a900091c0b3006b
:103ccc000440780024050700650037005443800049
:103cdc008042eb00055a9800544380005543800005
:103cec00a502900035029800554380001502900003
:103cfc000490a000940298000f00370054438000f9
:103d0c008042eb00055a98005443800055438000d4
:103d1c00a5029000350298005543800015029000d2
:103d2c000490a000940298000300370014c0b30064
:103d3c00044f78000000000031003700544380002d
:103d4c00045a90000482fb006f026200e10f5200e3
:103d5c000c003200ef0f520016003200e00f520040
:103d6c0020003a0010c0b3002a050700544380001d
:103d7c00245a900011c0b30004407800f6040700e8
:103d8c0037003700544380008042eb00055a9800fe
:103d9c005443800055438000a502900035029800e2
:103dac0055438000150290000490a00094029800e6
:103dbc000f003700544380008042eb00055a9800f6
:103dcc005443800055438000a502900035029800b2
:103ddc0055438000150290000490a00094029800b6
:103dec000300370014c0b300044f7800000000003b
:103dfc000300370014c0b300044f7800000000002b
:103e0c001e427800e04f52000b00320054438000f9
:103e1c008042eb00055a98005443800055438000c3
:103e2c00a5029000350298005543800015029000c1
:103e3c000490a0009402980030c0b3000a00070060
:103e4c0000427800e04f520082ff3a007628a8002a
:103e5c0003003700000000000100370000000000e4
:103e6c000080fa00000006000600fa0040479800a7
:103e7c0054448000540a90004822de0063426200e1
:103e8c008482fb004e4290000482fb00848f52001f
:103e9c000a003a0054448000940290000420200050
:103eac0004826200e00f520004003a005444800087
:103ebc005443880014c0b300640037000042eb0088
:103ecc000443780095872000864a78000002eb00b6
:103edc00040f780044448000140798001e029000e0
:103eec00e00f5200550032001e0290002402900098
:103efc00e00f5200510032001e029000240290008c
:103f0c00a4029000050f78004c0037001e027800c8
:103f1c00e00f5200380032001e027800540a900064
:103f2c004822de00634262008482fb004e42900015
:103f3c000482fb00848f52002d003a004e42900008
:103f4c000482fb00e00f520003003200e30f52002a
:103f5c000b003200260037001e02780094029000fd
:103f6c000420200004826200e00f52001b003a0083
:103f7c001e0278005443880014c0b300330037008d
:103f8c001e0278009402900004202000048262003b
:103f9c00e00f5200090032001e027800340290003b
:103fac00e00f52000f003a001e027800a4029000ad
:103fbc001e027800350298000d0037001e027800b2
:103fcc0034029000e00f520008003a001e02780004
:103fdc005443880014c0b3001c00370000000000dc
:103fec000300370000000000010037000000000053
:103ffc001e027800140f78001e027800e00f5200a9
:10400c000e003a001e029000140378001607980068
:10401c001e029000e00f5200080032001e029000b9
:10402c0024029000e00f5200040032001e029000a7
:10403c0024029000a4029000050f78001e0290004c
:10404c00e00f5200b1ff3a000042eb000440780050
:10405c000080fa00000006000600fa003400370069
:10406c0044448000140f780026003700444480003c
:10407c001402900094027800150798001200370083
:10408c0044448000140290002402900094027800b2
:10409c0025079800444480001402900024029000ec
:1040ac0004007800d8f1070044448000140290000a
:1040bc008002eb002502980044448000140290001a
:1040cc00ae02900025029800444480001402900037
:1040dc0024029000e00f5200e9ff3a0044448000b3
:1040ec001402900004007800c7f1070044448000db
:1040fc008002eb0015029800444480009e02900060
:10410c00150298004444800014029000e00f520005
:10411c00d6ff3a004444800004007800baf107004e
:10412c000002eb00444488001e02780044448800de
:10413c0044448000e00f5200c9ff3a005444800010
:10414c00544388000080fa00000006000200fa00c8
:10415c00110037003444800014029000040f7800e2
:10416c00344480001402780004007800a6f10700a3
:10417c00344480008002eb00050a7800344480004f
:10418c0004007800a0f107000002eb003444880022
:10419c001e0278003444880034448000e00f520042
:1041ac00ecff3a0074438000e00f5200050032002f
:1041bc00744380000400780093f107000002eb00c8
:1041cc007443880084438000e00f520005003200e5
:1041dc0084438000040078008bf107000002eb00a0
:1041ec00844388009cff07000080fa000000060052
:1041fc000a00fa00000f78001107980022079800b7
:10420c0033079800440798009e027800150290002e
:10421c000450a100940298009e02780015029000b0
:10422c000460a100940298009e0278001502900090
:10423c000470a100940298009e0278001502900070
:10424c000480a100940298001e02780014039000d0
:10425c0005fe2f0085026300150298009e0278006f
:10426c001502900004c0a100940298001e02780070
:10427c00be029000350a98001e0378006022b80038
:10428c00040b9800150b98004e02900005002000be
:10429c001e03780054039800650398001e027800f2
:1042ac008002eb00750a98001e0278009e029000b6
:1042bc00250a98001e027800ae0290007502980044
:1042cc001e02780005c2b300055a98009e027800c1
:1042dc00150290000490a100940298000080fa004e
:1042ec00000006000a00fa00000f78001107980081
:1042fc002207980033079800440798009e02780024
:10430c00150290000450a100940298009e027800bf
:10431c00150290000460a100940298009e0278009f
:10432c00150290000470a100940298009e0278007f
:10433c00150290000480a100940298001e027800df
:10434c001403900005fe2f008502630015029800ef
:10435c009e0278001502900004c0a10094029800ff
:10436c001e027800be029000350a98001e037800e9
:10437c006022b800040b9800150b98004e029000b8
:10438c00050020001e037800540398006503980074
:10439c001e0278008002eb00750a98001e0278005d
:1043ac009e029000250a98001e027800ae02900032
:1043bc00750298004e029000e00f520004003a0083
:1043cc001e02780005c1b300055a9800030037009f
:1043dc001e02780005c3b300055a98009e027800af
:1043ec00150290000490a100940298000080fa003d
:1043fc00000006000600fa00000f78001107980074
:10440c00220798009e027800150290000470a1000b
:10441c00940298009e027800150290000480a1007e
:10442c00940298001e0278001403900005fe2f00e1
:10443c0085026300150298009e0278001502900018
:10444c0004c0a100940298001e0278009e02900005
:10445c00350a98001e0378006022b800040b9800ff
:10446c00150b98002e029000050020001e0378000a
:10447c0054039800650398001e0278008002eb003c
:10448c00750a98001e027800d40a900004302000af
:10449c008482620004302000848f520004003a00b1
:1044ac001e02780005c4b300055a980012003700ac
:1044bc001e027800d40a900004302000848262002e
:1044cc0004102000848f520008003a001e0278006d
:1044dc0005c6b300055a98001e027800340a9000f5
:1044ec008042eb0015429800030037001e02780052
:1044fc0005c8b300055a98009e027800150290007a
:10450c000490a100940298000080fa0000000600bc
:10451c000600fa00000f7800110798002207980097
:10452c009e027800150290000470a100940298007d
:10453c009e027800150290000480a100940298005d
:10454c001e0278001403900005fe2f008502630004
:10455c00150298009e0278001502900004c0a1007c
:10456c00940298001e0278009e029000350a980072
:10457c001e0378006022b800040b9800150b9800fd
:10458c002e029000050020001e03780054039800b2
:10459c00650398001e0278008002eb00750a9800f3
:1045ac001e027800d40a900004302000848262003d
:1045bc0004302000848f520004003a001e02780060
:1045cc0005c5b300055a9800120037001e0278008a
:1045dc00d40a900004302000848262000410200071
:1045ec00848f520008003a001e02780005c7b30001
:1045fc00055a98001e027800340a90008042eb00a5
:10460c0015429800030037001e02780005c9b3005c
:10461c00055a98009e027800150290000490a100a3
:10462c00940298000080fa00000006000a00fa00cc
:10463c0020479800210798003207980043079800fc
:10464c002e02900025072000850f52000300320037
:10465c00f5ff2700850f520014003a003e0290002f
:10466c00144a9000e14f42003c0032003e029000a0
:10467c00144a90000482fb006a22b90004027800fc
:10468c008482e800c48e2000048242001403780067
:10469c004e029000050020003e019000ae009000fc
:1046ac002e409000060001002f003700444480008b
:1046bc00040f7800110037001e027800744290003d
:1046cc000482fb006a22b900040278008482e800ac
:1046dc00c48e200004824200140378004e02900025
:1046ec00050020003e019000ae0090002e4090008e
:1046fc00060001001e027800140f78001e027800dc
:10470c00e00f5200ecff3a006544800004082000e2
:10471c0004826200e00f5200120032002488200054
:10472c00144278000482fb006a22b900040278006b
:10473c008482e800c48e20000482420014037800b6
:10474c004e029000050020003e019000ae0090004b
:10475c002e4090000600010003003700000000000e
:10476c0001003700000000000080fa000000060085
:10477c000a00fa0020479800210798003207980099
:10478c004307980044448000040f78001100370060
:10479c001e027800744290000482fb006a22b90069
:1047ac0004027800e4024200c48e2000048242001d
:1047bc00140378004e029000050020003e0190008a
:1047cc00ae0090002e409000060001001e02780002
:1047dc00140f78001e027800e00f5200ecff3a0034
:1047ec000080fa00000006002200fa000042eb00f4
:1047fc00144798000042eb00044f78000002eb00d5
:10480c001407980064438000540798000042eb00a2
:10481c00444f98000042eb00544f980045448000f0
:10482c00450798008c28a9008c48a8005e029000cf
:10483c0014437800664f98005e0290000402e80072
:10484c00540798005e02900094427800754f9800cf
:10485c005e0290000402e800540798005e0290008b
:10486c00144278000482fb00040f98005e02900052
:10487c000402e800540798005e029000144278008d
:10488c000482fb004822dd008e0a90000482420064
:10489c00040f98005e0290000402e8005407980090
:1048ac005e02900014437800265798005e02900038
:1048bc000402e800540798005e02900094427800cd
:1048cc00355798005e0290000402e80054079800e7
:1048dc005e0290000402e800540798005e0290000b
:1048ec000402e800540798005e029000144378001c
:1048fc00465798004e529000046798000042eb0017
:10490c00745f98007f0347002400200005002000fe
:10491c00060178009106200000c0eb00d21f0700b2
:10492c00004278000404a200e04f5200060032005e
:10493c0084c2b3000443780005882000864a7800be
:10494c0014c0b300044f78006e4a90000482fb0040
:10495c009e02900004824200140798006543800078
:10496c001e02900004824200540798007a0137001e
:10497c005e02900094427800654f98005e029000b1
:10498c000402e800540798005e029000144378007b
:10499c00764f98005e0290000402e80054079800dd
:1049ac007e4a9000e94f520013003a008c28a80070
:1049bc005e0290001442780004437800d5872000f2
:1049cc00864a7800d4872000144278000482fb00c9
:1049dc0062026200e00f5200060032006444800064
:1049ec0068026200e00f5200020032008c48a900fd
:1049fc00010037008c68a9007e4a9000e44f5200f9
:104a0c000a0032006e4a90000482fb009e02900065
:104a1c000482420014079800654380001e02900037
:104a2c0004824200540798004b0137005e0290004c
:104a3c0094427800555798005e0290000402e800fa
:104a4c00540798005e029000144378006657980053
:104a5c005e0290000402e800540798005e02900089
:104a6c0094427800755798005e0290000402e800aa
:104a7c00540798005e02900014437800065f98007b
:104a8c005e0290000402e800540798005e02900059
:104a9c0094427800155f98005e0290000402e800d2
:104aac00540798005e02900014437800265f98002b
:104abc005e0290000402e8005407980065448000f0
:104acc000404200004826200e00f52000400320053
:104adc001488200014427800645f9800140037009a
:104aec007e024700840178002e5990009e58900059
:104afc000e589000a2f90700004278000404a200ae
:104b0c00e04f52000a0032006e4a90000482fb0013
:104b1c009e029000048242001407980065438000b6
:104b2c001e02900004824200540798000a013700cc
:104b3c004e02900024079800030037002e029000cc
:104b4c0094027800250798002e029000e00f520086
:104b5c00050032002e029000e44290005e5290005c
:104b6c0084cf5200f5ff3a002e029000e00f520065
:104b7c001e003a008000200095ee0700000278002d
:104b8c00240798002e029000e00f520002003a0019
:104b9c0014c0b300044f78001e4278000404a20035
:104bac00e04f5200110032002e0290005e53900034
:104bbc0066429800ee5a90002e02900075429800c2
:104bcc002e0290008002eb00150298002e0290003d
:104bdc008002eb00250298002e029000ce0290007d
:104bec00050a78002e039000460798001e427800b4
:104bfc000404a200e04f52000900320060002000c3
:104c0c0073ee070000027800340798003e02900013
:104c1c00e00f520002003a0014c0b300044f7800b9
:104c2c001e4278000404a200e04f5200c40032007f
:104c3c002e029000940290003e029000050a78002b
:104c4c003e029000ee529000254298003e029000e9
:104c5c008002eb00250298002e0290003e0390008b
:104c6c00160298006e529000e04f520003003a007a
:104c7c002e029000be029000250298006e4a900011
:104c8c000482fb009e0290000482420014079800ec
:104c9c00654380001e029000048242005407980075
:104cac000042eb0014479800990037005e02900018
:104cbc0014437800664f98005e0290000402e800ee
:104ccc00540798005e02900094427800754f98004b
:104cdc005e0290000402e800540798007e4a90009f
:104cec00e54f52000a0032006e4a90000482fb002d
:104cfc009e029000048242001407980065438000d5
:104d0c001e02900004824200540798008000370075
:104d1c00200220002eee070000027800640f98009d
:104d2c006e0a9000e00f520002003a0014c0b3006b
:104d3c00044f78005e029000944278006e0a900056
:104d4c00255a98005e0290000402e800540798006f
:104d5c005e029000944278006e0a9000355a9800da
:104d6c005e0290000402e800540798005e02900076
:104d7c00144278008482fb006e0a90004502980071
:104d8c005e0290000402e800540798006e0a90003e
:104d9c00c40290005e029000144278000482fb0072
:104dac004822dd00848242006e0a90004502980081
:104dbc005e0290000402e800540798005e02900026
:104dcc00144278008482fb006e0a90002502980041
:104ddc005e0290000402e800540798006e0a9000ee
:104dec008002eb0015029800ee0a9000150290006c
:104dfc0004a0a00094029800ee0a90001502900006
:104e0c000490a000940298006e0b90006022b800f1
:104e1c00040b9800150b98006e0a90008042eb0072
:104e2c00055a9800ee5a90006e0a9000155a980098
:104e3c006e0a9000d40a9000043020008482620034
:104e4c0004102000848f52001a003a006e0a900061
:104e5c0024029000e00f520003003a006e0a90000a
:104e6c0015002000250298006e0a90002402900084
:104e7c00f00f5200030036006e0a9000050120006e
:104e8c00250298006e0a9000240290000402e900aa
:104e9c0015002000042add00840278006e0a9000c0
:104eac0025029800ee0a90001502900004a0a100c3
:104ebc00940298006e0a9000a40290006e0a900072
:104ecc00350298003e029000a40290006e0a9000f9
:104edc00050a78003e0290006e0b900026029800a6
:104eec001e4290000442e800144798006e4a90005d
:104efc000482fb009e02900004824200140798007a
:104f0c00654380001e029000048242005407980002
:104f1c001e4278000404a200e04f52000800320048
:104f2c009e0290000e0a9000848f52000400310003
:104f3c009e4290007e52900084cf52005bff39005d
:104f4c009e4290007e52900084cf520002003200ac
:104f5c0014c0b300044f78001e4278000404a20071
:104f6c00e04f5200040032009e0290000e0a9000a6
:104f7c00848f52007efe39004e029000e00f5200ea
:104f8c0002003a0014c0b300044f78001e427800af
:104f9c00e04f5200310032002b0037004e029000df
:104fac00240798004e029000940278004507980060
:104fbc001d0037002e029000140390003607980055
:104fcc002e02900014029000940278002e029000a1
:104fdc00150298000c0037003e029000a4029000cd
:104fec00650f98003e029000240290009402780015
:104ffc003e029000250298006e08900002ee070019
:10500c000002eb00640f98003e0290002402900016
:10501c00e00f5200f0ff3a003e009000faed07005e
:10502c000002eb00340798002e029000140290004e
:10503c00e00f5200dfff3a002e009000f2ed070067
:10504c000002eb00240798004e029000e00f520083
:10505c00d2ff3a000042eb00090037003e529000ac
:10506c00c6872000044b78004e5290000482fb004f
:10507c0024448800ce0290004544880014c0b3003c
:10508c00044078000080fa00000006000800fa00d6
:10509c00604798006e429000e04f520021003a00a9
:1050ac0044448000140798001a0037001e02900038
:1050bc009402900025079800100037002e029000f3
:1050cc00a4029000050f7800060037009e027800bd
:1050dc001502900004b0a100940298001e02780002
:1050ec00140f78001e027800e00f5200f7ff3a0010
:1050fc002e02900094027800250798002e02900052
:10510c00e00f5200edff3a001e029000940278006e
:10511c00150798001e029000e00f5200e3ff3a00c2
:10512c000b0037006e40900072f907000002780007
:10513c00040f78001e027800e00f520004003200c9
:10514c009e0278001502900004b0a1009402980011
:10515c000080fa00000006000400fa0020479800c6
:10516c0031479800d4c5b300044f780064448000e4
:10517c0061026200e00f52000200320004c8b3006a
:10518c001e4f720054438000d40a9000043020005b
:10519c0004826200e00f520002003a00f4ceb30029
:1051ac001e4f620054438000d40a9000043020004b
:1051bc008482620004102000848f520002003a00a6
:1051cc00e4cfb3001e4f62009e4278000582fb00c4
:1051dc0054258800e4872000144278000482fb00e8
:1051ec00b42488003e4290000482fb00c422dd00ff
:1051fc002e4290000483fb00f4072000040263009d
:10520c0005027200f42488007688a8000080fa0059
:10521c00000006000600fa00404798004e4290003d
:10522c00e94f520016003a0004a020001407980021
:10523c006444800070026200e00f520002003200f1
:10524c0044a0200014079800644480004422de002f
:10525c006142620004c2ea00614262000482fb0007
:10526c00610262004422dd0066448000f5fe2f00de
:10527c008502630005027200644488001600370042
:10528c0084a02000140798006544800004022000cc
:10529c0004826200e00f520002003200c4a0200021
:1052ac0014079800644480004522de0061426200cd
:1052bc0004c2ea00614262000482fb0061026200e7
:1052cc004522dd0066448000f5fd2f008502630059
:1052dc0005027200644488004e429000ed4f52006b
:1052ec001a003a0054438000740290006123b80005
:1052fc0054438000940a9000040a90000403530065
:10530c0085835b005443800044029000050020001c
:10531c00840f5300858f5b000400360054438000db
:10532c00c4029000050f780036003700544380000b
:10533c007403900054438000940a9000040a900077
:10534c0004027800040f53002e00370054438000f1
:10535c00d40a9000043020008482620004102000e3
:10536c00848f52000c003a004e429000e94f5200dc
:10537c0004003a0054438000c4029000050f7800ea
:10538c002000370054438000940a9000040a9000d7
:10539c00040f78001b003700544380005403900026
:1053ac00e403900054438000940a9000040a900097
:1053bc000403530085835b00544380004402900037
:1053cc0005002000840f5300858f5b00040036001d
:1053dc0054438000c4029000050f78000900370088
:1053ec0054438000e40290005402900004037800bf
:1053fc0054438000940a9000040a90000402780040
:10540c00040f53004e429000ed4f520006003a003c
:10541c0054438000240a9000840278001e029000fd
:10542c00150298002000370054438000d40a9000e5
:10543c00043020008482620004102000848f52000b
:10544c000f003a0054438000340a900004037800a3
:10545c0054438000340a9000144290000482fb00f4
:10546c000402e8006622b9000402780066027a00a1
:10547c00840278001e029000150298000a00370082
:10548c0054438000340a9000040378005443800095
:10549c00940a9000040a90000402780084024300ed
:1054ac001e029000150298001e0290008042eb0034
:1054bc0015429800f43f20001e0362001e0290006b
:1054cc00f53f2000850263009403780006c02f008e
:1054dc000683630086827200050a780054438000bc
:1054ec00140290004b22de00e14262001e0290008a
:1054fc008582fb00e1826200ce2add0094037800f5
:10550c00f6ff2b000683630086827200050a780082
:10551c0054438000140290004a22de00e1426200f3
:10552c001e0290008582fb00e1826200cb2add0026
:10553c0094037800f67f2f00068363008682720046
:10554c00050a78009e0290001502780004f0a00075
:10555c00840a78000080fa00000006000600fa00b9
:10556c0054448000940290000420200004826200c5
:10557c00e00f520002003a0014c0b30025003700bf
:10558c0044448000140798001e0037001e0290004f
:10559c009402900025079800140037002e0290000a
:1055ac00a4029000050f78000a0037001e02780054
:1055bc00940290000420200004826200e00f52004c
:1055cc0002003a0014c0b300120037001e0278002b
:1055dc00140f78001e027800e00f5200f3ff3a001f
:1055ec002e02900094027800250798002e0290005d
:1055fc00e00f5200e9ff3a001e029000940278007e
:10560c00150798001e029000e00f5200dfff3a00d1
:10561c000042eb00044078000080fa000000060015
:10562c000a00fa0075048000f4fb2f00048262006b
:10563c007404880015248000040420000482620095
:10564c00e00f5200190032000524800004042000f1
:10565c0004826200e00f52001400320004042000a7
:10566c000424880044438000e00f52000f003200f5
:10567c00444380000402e900444388004443800012
:10568c00e00f520009003a0082c4a9009543800043
:10569c0004f0200004826200e00f5200030032008c
:1056ac00944380000402e800944388006524800041
:1056bc000404200004826200e00f52000e0032004d
:1056cc00552480000404200004826200e00f520084
:1056dc00090032008cc4a900040420005424880062
:1056ec009543800004032000848f520002003a008e
:1056fc0004102000a443880064248000610262002e
:10570c00e00f520009003200542480006102620054
:10571c00e00f5200050032001400200054248800d1
:10572c008c04a9000002eb00a443880064248000d0
:10573c0068026200e00f5200ab013200542480007a
:10574c0068026200e00f5200a7013200642480005e
:10575c0062026200e00f52000b0032005424800001
:10576c0062026200e00f52000700320054438000d6
:10577c00d40a9000043020008482620004102000bf
:10578c00848f520098013a007688a90094248000f6
:10579c00440798008400200054248800544380005f
:1057ac00245a90008482fb00f424800004826a0056
:1057bc006f026200e00f52008a013a004e02900024
:1057cc0068026200e00f52000900320084a0200041
:1057dc00040f78004e02900064026200e00f520049
:1057ec000b003200c4a02000040f78000800370022
:1057fc0004a02000040f78004e02900064026200a6
:10580c00e00f52000200320044a02000040f780088
:10581c001e0278009402780004c023008482620087
:10582c0004802000848f52005e003a009e027800b3
:10583c00f43f2000150262003407980050438000aa
:10584c0054438000040b9000940b90003e02900097
:10585c00050020000602420087824a0004089800d6
:10586c0015089800544380008002eb00750a9800dc
:10587c00544380005543800095029000cb2ade00f3
:10588c00e1c262000504a200e1c262008582fb0055
:10589c00e1826200cb2add0094039000f67f2f009a
:1058ac0006836300868272001502980054438000c0
:1058bc00045a9000f04f52000a003200544380000a
:1058cc00845a900004c2b30084cf52000500320009
:1058dc0054438000845a900004c3b30084cf520018
:1058ec0012003a0054438000040b9000940b90007b
:1058fc00544380007402900005002000840f530074
:10590c00858f5b0037013900564380006022b80058
:10591c00040b9800150b980054438000845a900097
:10592c008542e800055a98002e0137005443800048
:10593c00d40a9000043020008482620004102000fd
:10594c00848f52000e00320054438000c402900039
:10595c003e029000848f520009003e0054438000a8
:10596c00040b9000940b900054438000e4029000d0
:10597c0054029000840f5300858f5b000a0139009c
:10598c0055438000150290000480a00094029800fa
:10599c0054438000845a90008542e800055a9800d0
:1059ac00100137001e0278009402780004c0230016
:1059bc008482620004c02000848f520007003200f1
:1059cc001e0278009402780004c0230084826200d6
:1059dc0004c02200848f52003e003a009e027800e0
:1059ec00f43f2000150262003407980050438000f9
:1059fc0054438000040b9000940b90003e029000e6
:105a0c00050020000602420087824a000408980024
:105a1c0015089800544380008002eb00750a98002a
:105a2c00544380005543800095029000cb2ade0041
:105a3c00e1c262000504a200e1c262008582fb00a3
:105a4c00e1826200cb2add0094039000f67f2f00e8
:105a5c00068363008682720015029800544380000e
:105a6c00d40a9000043020008482620004102000cc
:105a7c00848f52000e00320054438000c402900008
:105a8c003e029000848f520009003e005443800077
:105a9c00040b9000940b900054438000e40290009f
:105aac0054029000840f5300858f5b00c0003900b6
