:020000040000fa
:080000000002040000000000f2
:020000040000fa
:10000800d2020000d2020000d2020000d202000098
:10001800d2020000d2020000d2020000d202000088
:10002800d2020000d2020000d2020000d202000078
:10003800d2020000d2020000d2020000d202000068
:100048005e6c0000d2020000d2020000d202000062
:10005800d2020000d2020000d2020000d202000048
:10006800d2020000d2020000d2020000d202000038
:10007800d2020000d2020000d2020000d202000028
:10008800d2020000d2020000d2020000d202000018
:10009800d2020000d2020000d2020000d202000008
:1000a800d2020000d2020000d2020000d2020000f8
:1000b800d2020000d2020000d2020000d2020000e8
:1000c800d2020000d2020000d2020000d2020000d8
:1000d800d2020000d2020000d2020000d2020000c8
:1000e800d2020000d2020000d2020000d2020000b8
:1000f800d2020000d2020000d2020000d2020000a8
:10010800d2020000d2020000d2020000d202000097
:10011800d2020000d2020000d2020000d202000087
:10012800d2020000d2020000d2020000d202000077
:10013800d2020000d2020000d2020000d202000067
:10014800d2020000d2020000d2020000d202000057
:10015800d2020000d2020000d2020000d202000047
:10016800d2020000d2020000d2020000d202000037
:10017800d2020000d2020000da6e0000d2020000b3
:10018800d2020000d2020000d2020000d202000017
:10019800d2020000d2020000d2020000d202000007
:1001a800d2020000d2020000d2020000d2020000f7
:1001b800d2020000d2020000d2020000d2020000e7
:1001c800d2020000d2020000d2020000d2020000d7
:1001d800d2020000d2020000d2020000d2020000c7
:1001e800d2020000d2020000d2020000d2020000b7
:0801f800d2020000d202000057
:020000040000fa
:10020800d2020000d2020000d2020000d202000096
:10021800d2020000d2020000d2020000d202000086
:10022800d2020000d2020000d2020000d202000076
:10023800d2020000d2020000d2020000d202000066
:100248005e6c0000d2020000d2020000d202000060
:10025800d2020000d2020000d2020000d202000046
:10026800d2020000d2020000d2020000d202000036
:10027800d2020000d2020000d2020000d202000026
:10028800d2020000d2020000d2020000d202000016
:10029800d2020000d2020000d2020000d202000006
:1002a800d2020000d2020000d2020000d2020000f6
:1002b800d2020000d2020000d2020000d2020000e6
:1002c800d2020000d2020000d2020000d2020000d6
:1002d800d2020000d2020000d2020000d2020000c6
:1002e800d2020000d2020000d2020000d2020000b6
:1002f800d2020000d2020000d2020000d2020000a6
:10030800d2020000d2020000d2020000d202000095
:10031800d2020000d2020000d2020000d202000085
:10032800d2020000d2020000d2020000d202000075
:10033800d2020000d2020000d2020000d202000065
:10034800d2020000d2020000d2020000d202000055
:10035800d2020000d2020000d2020000d202000045
:10036800d2020000d2020000d2020000d202000035
:10037800d2020000d2020000da6e0000d2020000b1
:10038800d2020000d2020000d2020000d202000015
:10039800d2020000d2020000d2020000d202000005
:1003a800d2020000d2020000d2020000d2020000f5
:1003b800d2020000d2020000d2020000d2020000e5
:1003c800d2020000d2020000d2020000d2020000d5
:1003d800d2020000d2020000d2020000d2020000c5
:1003e800d2020000d2020000d2020000d2020000b5
:0803f800d2020000d202000055
:020000040000fa
:100400000f5e21000e7f22000e0188000000000018
:10041000000020000000e000020032000001200087
:10042000200288000c000700a0d526000100200053
:1004300011000700000020000000e0000200320070
:100440000000020000000000a06c0200000000009c
:100450000040da000000fe004440a9002017200000
:100460000000e0000300320000002000a00188002e
:100470004440a80000000600910188008000780038
:100480000000eb0015003700e280400032a0b4000d
:100490009101ba00e280400032a0b4009102ba009b
:1004a000e280400032a0b4000002eb00472bde00e7
:1004b000f507b200602ce10004003a000059eb009f
:1004c0008301e900fdff3e00040037006128e100e0
:1004d000010032000082eb00040007001101ba00a5
:1004e0000200e000e8ff3a00000006003159ba00bf
:1004f0008301e9000c0032002159ba008301e900b0
:10050000080032000400e00003003a00e2804000ee
:1005100032a0b400f5ff370011d9ba008301e90019
:10052000faff3a008100e800e180400032a0b40008
:1005300000000600000000000000000000000000b5
:1005400000000000000000000000000000000000ab
:10055000000000000000000000000000000000009b
:10056000000000000000000000000000000000008b
:10057000000000000000000000000000000000007b
:10058000000000000000000000000000000000006b
:10059000000000000000000000000000000000005b
:1005a000000000000040da000000fe00889fbe004e
:1005b00080047800106e8000e00f500004003a00c4
:1005c0000e0007000084eb00e00f5000080035002b
:1005d000186e8000e08f54000500320009004400ce
:1005e00006000700e00f500001003d000084eb0012
:1005f000080078004f04be0000000600e00f500025
:1006000004003a0004e12000146e88000002780023
:10061000060037000082eb00055e2100850f5000c8
:1006200002003e00106e88000002eb00040078001b
:10063000000006006022b800060220000000d00082
:100640008180d2000482d2008582d2000000a00006
:100650000202520083825a0003003100020242006b
:1006600083824a000000a1000603e900f3ff3a007c
:100670000000060024db2000e4874700956d800021
:10068000889fbe008a9fbe008c9fbe008e1f780090
:10069000e08f52000b003a0024029800e40242006e
:1006a000f46d8800956d8800056e8800a442900066
:1006b0000504a00025429800e44290000504a00033
:1006c000654298006704400004e1200025002000f6
:1006d0004244de00095e21004244dd00848454006f
:1006e00005074400110009008504d8003c5e210084
:1006f000f26d80000406560080bf9f000e07470081
:100700000003eb00e4054400080646000200370041
:10071000160020000d017800224290006102620064
:10072000020032000a0037001509780092027800b2
:100730002542900061026200fbff32000802410086
:10074000848f520002003900e00f54003f003d004a
:10075000920678000d00a100828f5600edff3e004a
:10076000e10f5300eaff3a000fba9700840f5400dc
:1007700002003600890f540010003900614ab900a8
:10078000b0ff2f00010020006143b80004025000b8
:1007900085825800840f5300858f5b00020035006e
:1007a0000b05780006003700110009000986d80003
:1007b0000982b90004057800010037000e057800b1
:1007c0000a00780079ff0700e10f400005003a00b9
:1007d0000b0578000b00780074ff0700e10f400064
:1007e0002b003200046e8000000a7800046e800046
:1007f00064034200a4429000860f500002003200c1
:100800000504a000010037000504a100254298005e
:100810006405550024db20000a0540000a08780022
:100820000a6e8800040d7800056e80000003eb005e
:10083000254290000404a000a442980020429000a9
:100840000404a10024409800b2ff3700f46d880032
:10085000848f5200070036001403be008042eb0074
:10086000d66d8800e76d8800120a7800f46d80006c
:100870002542980022429000f76d80000404a000f9
:100880000709780024419800640041000100370006
:100890000000eb004f0778004f06be004f05be007a
:1008a0004f04be004f00b10000000600e00f5000f2
:1008b0000800320064005000f46d8000840f500086
:1008c00001003100f06d8800204290000404a10076
:1008d0002440980000000600889fbe0000047800b5
:1008e0008a9fbe0081047800e08f540005003a0022
:1008f000e00f54003200320008007800ebff0700e0
:1009000030003700e00f540004003a00090078007e
:1009100058ff0700800478002a0037006402540062
:100920009405780068fa97006102620002003200c4
:1009300008007800ddff0700090078004dff070080
:1009400080047800e08f54001e003200888f54002d
:100950001b00320069bd97008885550009055500c8
:10096000c2ddde0042d5de000a0178008b0f5500a3
:10097000010036000b0178004211dd00880078008c
:10098000090078002d000700888f54000d00310009
:100990004255dd000a854400880f550009003600e5
:1009a00008045500d46d8000e56d800042c4de006f
:1009b0004244dd0008844400048cbe00010037007e
:1009c00088047800090078004f05be004f04be007f
:1009d00000000600e68747008e1f780066875700f4
:1009e000d0bf9f00012f78000e0037005fbb97003b
:1009f000efba970016407800154278000201e9002e
:100a0000844f5000040032000080fb000482fb0091
:100a100004005000060037000603e800d6bf9f0020
:100a2000050fe800e00f5100f0ff3a0002007800e7
:100a30004f0778006f00b100000006000002780048
:100a400002003700315a78000201e900e00f51003e
:100a5000fcff3a00000006000002780002003700a8
:100a6000015a78000201e900e00f5100fcff3a0052
:100a700000000600000278008042eb00b4cf1200b4
:100a8000fdff3a000080ea0000004200000006007e
:100a90000002780006003700314378000201e900c7
:100aa000065a780084027800e04f530006003200b6
:100ab00084027800e00f5100f7ff3a00020037008f
:100ac000805aeb000201e900e00f5100fcff3a0000
:040ad000000006001c
:020000040000fa
:100ad40004000000614100000500000062420000c3
:100ae40006000000634300000700000064440000a7
:100af400080000006545000009000000664600008b
:100b04000a000000674700000b000000684800006e
:100b14000c000000694900000d0000006a4a000052
:100b24000e0000006b4b00000f0000006c4c000036
:100b3400100000006d4d0000110000006e4e00001a
:100b4400120000006f4f00001300000070500000fe
:100b540014000000715100001500000072520000e2
:100b640016000000735300001700000074540000c6
:100b740018000000755500001900000076560000aa
:100b84001a000000775700001b000000785800008e
:100b94001c000000795900001d0000007a5a000072
:100ba4001e000000312100001f0000003240000040
:100bb4002000000033230000210000003424000042
:100bc400220000003525000023000000365e0000ee
:100bd400240000003726000025000000382a000009
:100be40026000000392800002700000030290000fa
:100bf4002d0000002d5f00002e0000003d2b0000a2
:100c04002f0000005d7d0000300000005b7b0000d1
:100c1400310000005c7c000032000000607e0000b7
:100c2400330000003b3a000034000000272200009b
:100c340035000000607e0000360000002c3c0000ff
:100c4400370000002e3e0000380000002f3f000057
:100c54002c0000002020000000950000000000008f
:100c64000000000001f90000000000000000000086
:100c740008870000040000000000000009af000025
:100c840000000000010000000a1b0000000000003a
:100c9400010000000cc3000001000000000000007f
:100ca4000daf0000020000000000000010ff000073
:100cb400000000000000000011ff00000000000020
:100cc4000100000012ff000000000000010000000d
:100cd40018ff0000000000000100000019ff0000e0
:100ce400000000000100000020ff000000000000e0
:100cf4000000000021ff00000000000000000000d0
:100d040026df00000100000000000000377300002f
:100d140000000000000000003a250000040000006c
:100d2400000000003b25000000000000000000005f
:100d340029ff0000040000000000000017ff00006d
:100d4400000000000000000054450000535400005f
:100d5400464900004c4500002e4300005356000055
:100d640000000000d85b0000c85b0000f6600000d3
:100d7400de5b00003a5e000076600000b4600000b4
:100d84002123000024250000262700002829000034
:100d94002d4000005e5f0000607b00007d7e00004f
:100da400205c00002f3a00002a3f0000223c000093
:040db4003e7c000081
:020000040000fa
:100db800c06488000000060016c0b30065c92000a2
:100dc800864a78000480200045c82000844a7800bc
:100dd8004822de000443780055c82000864a78007f
:100de80004a0200065c82000844a78004822de005c
:100df8000443780075c82000864a7800a4c92000fa
:100e080085c82000844a78004822de000443780020
:100e180095c82000864a7800a20ca900a22ca90037
:100e28000082eb008082eb00d4648800e5648800cf
:100e3800f464880005658800aa2cef00a62cef0052
:100e4800a82cef001000200000000600daff0700c1
:100e58000000060010029000010078000400010064
:100e680000000600804278000000eb0064c9200002
:100e780014427800e04f520006003a0040c62000b5
:100e880054c9200014427800854f520001003200f6
:100e98000000eb0000000600f2ff070000027800e7
:100ea8000000eb00800f52000200320064689000de
:100eb8000080fb0000000600889fbe008a1f7800a3
:100ec80000047800e86290008582fb007862900058
:100ed8004822dd0004827200886290008582fb004f
:100ee80098609000c808dd0081807200886a9000d0
:100ef8008582fb00186890004800dd0000807200c1
:100f0800440290006011b80004000100004278001b
:100f180080002000e04f52008b003200c862900031
:100f28008582fb00586290000022dd000482720076
:100f3800000aeb0034127800886290008582fb007a
:100f4800186290000022dd000482720064fb9300a6
:100f580055c5b300854f53003e003a0074fb93001b
:100f6800a5cab300854f53003a003a006473900055
:100f780065c4b300854f530019003a00747390009c
:100f8800e5c25200854f530015003a00047b9000db
:100f9800f3c24200854f530011003a00147b9000c1
:100fa80015c3b300854f53000d003a0064639000e9
:100fb800e8c25200854f530009003a000042eb0096
:100fc800044c780014449800244498003444980051
:100fd80024c0b300646c98000000eb005a0037008e
:100fe80024d3900065c4b300854f530019003a001c
:100ff80034d39000e5c25200854f530015003a00e3
:1010080044d39000f3c24200854f530011003a00c8
:1010180054d3900035c3b300854f53000d003a00f8
:1010280024c39000eac25200854f530009003a00d9
:101038000042eb00044c78001444980024449800c3
:101048003444980034c0b300646c98000000eb008e
:101058003d00370064fb93004000200055c5b300f5
:10106800854f530038003a0074fb9300a5cab300bb
:10107800854f530034003a00e41bb0008042eb0077
:10108800656c980042c0b300f10f200019002000e1
:10109800030524000a802100844a90008582fb0011
:1010a800144890004800dd0000837200a44a9000b4
:1010b8008582fb00344890004800dd008083720080
:1010c800014c6300c832de0015449800274498009c
:1010d800c83ade0035449800c4429000eecf520072
:1010e80014003e008502fb00854add000383620090
:1010f80008003a000a8362000a003a00e2826200ad
:101108000c00320014c0b300646c98000000eb00bf
:101118000d00370024c0b300646c98000000eb0099
:101128000900370034c0b300646c98000000eb007d
:10113800050037000241e900020032007002420057
:10114800d5ff3700500020004f0578004f04be003f
:1011580000000600889fbe008a9fbe008c9fbe00cc
:101168008e1f7800e4c2b300904f120014003a00ba
:101178001042900033c0b300e04f52006e003200be
:10118800f5c2b300854f52006b0032008542e9007a
:10119800854f52000e003a0020429000e04f520066
:1011a800650032008542e800854f52006200320037
:1011b8008044eb0089457800130020004e0037007a
:1011c8008044eb0089457800130020004a0037006e
:1011d8008044eb0089457800130020004600370062
:1011e800e18f510032003a008944e8008e42430002
:1011f800f9cf52002600360007cdb30087424300de
:10120800e9cf520022003600e04f5200200035009e
:10121800e4c2b300844f5300060032006d4252000e
:10122800844f53001a00320005c1b30014c0b30044
:1012380004003700e0cf55004500320023002000ad
:10124800150037008483fb00edc37b0086cf530075
:10125800030032000442e8008542e900f9ff3a0041
:10126800f14f52000a003a00e0cf5000050032006a
:101278008a4f5300060032008c4f530003003a0097
:10128800030037002300200001003700230020005e
:10129800e0cf5500040032001bc0b300e3cf540078
:1012a8002d003e0002003700e8cf54002a003e001f
:1012b800e28f510016003a0095c0b3000042eb00df
:1012c8008483fb00e2c37b0086cf530006003a000c
:1012d800e0cf5000150032008a4f53000200320060
:1012e8008c4f530013003a000442e8008542e9009d
:1012f800f3ff3a0006003700f8c2b300326d280049
:10130800fac3b300acc2b300fecbb3002d6c280007
:101318003042780004437800e04f52000600320063
:10132800884f5200aeff3a00030037008041eb00bf
:10133800010037008041eb00034078004f07780038
:101348004f06be004f05be004f04be000000060059
:101358008044eb00d0ff370023002000d6ff370081
:10136800b0427800e4c2b30084cf520006003a00cd
:101378000042eb00190037000042eb00170037006d
:101388000042eb0015003700e0cf5200faff3200b0
:10139800f4c2b30084cf5200f9ff32000042eb00e0
:1013a800e7c2b300f2c2b3000483fb000683400027
:1013b800756398000442e800b042780087cf520075
:1013c80004003200e0cf52000200320082cf520007
:1013d800f5ff3a00e74f520007003e0007c2b3008e
:1013e8000483fb0006834000776398000442e8000a
:1013f800e74f5200faff3600e6c2b30086cf52002c
:1014080003003a0090427800e0cf520004003a000e
:1014180006c2b300ea4f52000a0036000f00370038
:101428000000e8000483fb00068340007563980011
:101438000442e800b0427800e0cf5200f9ff3a00d9
:10144800f3ff37008482fb0085824000f662980033
:101458000442e800ea4f5200faff36000000060096
:10146800200b900007002000c033dd00060020009c
:10147800500890006102b800040073008580730072
:1014880000000600889fbe008004780001047800f0
:101498000800780075fd0700e00f500006003200d4
:1014a8003465800045658000848cbe0055658000e9
:1014b800a5049800010037000004eb00080078003c
:1014c8004f04be0000000600889fbe008a9fbe0031
:1014d8008c1f780000057800e08f5000040032006f
:1014e80010c0b300e18f50006c003a002a003700aa
:1014f8004a6290000482fb005a6390004833dd0082
:1015080006037200460290006102620010c0b30038
:1015180062003200ea6290008582fb007a629000e5
:101528004822dd00048272008a6290008582fb00f6
:101538009a609000c808dd00818072008a6a900075
:101548008582fb001a6890004800dd000080720068
:10155800d40290000042eb001601be000500010015
:10156800004278000040eb00804f52004b003200f0
:101578004a6290000482fb00da629000c82add000b
:1015880085027200450290000400a100c402980080
:1015980010c0b30041003700ca6290008582fb008a
:1015a8005a6290004822dd0004827200c402900052
:1015b800e282620010c0b3003800320024049000b8
:1015c800b40490004a6a9000e04f520028003200ac
:1015d8008045eb000b467800ea6290008582fb00ac
:1015e8007a6290004822dd0004827200aa629000ac
:1015f8008582fb00ba609000c808dd008180720017
:101608008a6a90008582fb001a6890004800dd0015
:1016180000807200d40290000c4278000801be00dd
:1016280005000100e04f50001b0032008b45e80028
:101638004a5b90000683fb00da5b9000c83bdd0044
:10164800070273006a5b90000683fb00fa5b900058
:10165800c83bdd00870273004a6b90008b4f530034
:10166800030036000804420089844a00daff370084
:101678004a6290000482fb00da629000c82add000a
:1016880085027200450290000410a100c40298006f
:1016980010c0b300010037000040eb004f0678008f
:1016a8004f05be004f04be0000000600881f7800ea
:1016b800000478008000eb000800780082ff070033
:1016c8000042780090002000e04f52001c003200d9
:1016d800e86290008582fb00786290004822dd0075
:1016e80004827200886290008582fb0098609000f6
:1016f800c808dd0081807200486390000683fb0003
:10170800d8629000c82add0085027300086b90003b
:101718000683fb00186890004800dd000000730095
:10172800440290001501be00040001000042780048
:101738000000eb00e04f520001003a00800020005a
:101748004f04780000000600889fbe00804478009f
:1017580009407800c3fd0700000478000080eb0012
:10176800e00f540025003200110020000800780026
:1017780055ff07008000eb000800780052ff0700c3
:10178800e86290008582fb00786290004822dd00c4
:1017980004827200886a90008582fb0018689000b5
:1017a8004800dd000080720034029000040001004f
:1017b80054c9200014427800894f520008003a00aa
:1017c80016c0b30065c92000864a780006c0b30079
:1017d80035c92000864a780055c92000864a780015
:1017e8000000eb0054658000880f520003003a00a7
:1017f800a62cef00a82cef00506588004f04be000f
:1018080000000600640161003000320010427800d8
:10181800a5c2b300854f52000a00320085c0b3004c
:101828008003eb0007437800f2c3b300a3c2b30000
:101838000f0037008683fb0060c27b00834f520095
:101848000b003a00004a900015c0b300a6c2b300ce
:10185800864f52002a00320035c0b30087002000ae
:1018680007437800f2c3b300a3c2b3000d003700ea
:10187800824f520003003200e1c37b0084cf530043
:101888001a003a000643e8008542e900e9ff3a00f9
:10189800ecff37008683fb0060c27b00834f520059
:1018a80014003200824f520003003200e1c37b0073
:1018b80084cf530011003a000643e8008542e9004e
:1018c800f4ff3a0015c0b3000d003700b200200045
:1018d8003efc07008002780005f0a7008502ea00b8
:1018e8008502e900cf2ade00050037008042eb00c0
:1018f8000300370015c0b300010037008042eb0039
:101908000540780000000600606a9000e34f52002e
:1019180015003a0062015100e0815900506a9000b8
:101928000482fb0005002000049bb9000411b800e4
:1019380083014300005390000683fb0090539000fe
:10194800c83bdd0007027300205390000683fb00ac
:10195800b0539000c83bdd008702730002004200cc
:1019680083804a0024003700e10f5100e08f5900be
:101978000d003e00004b90000683fb00904b90004a
:10198800c83bdd0007027300204b90000683fb0074
:10199800b04b9000c83bdd00870273000200420094
:1019a80083804a001400370062015100e081590029
:1019b800506a90000482fb0005002000049bb900d7
:1019c8000411b80083014300005390000683fb0014
:1019d80090539000c83bdd0007027300205390002d
:1019e8000683fb00b0539000c83bdd0087027300fc
:1019f8000200420083804a0000000600889fbe0063
:101a08008a9fbe008c9fbe008e1f7800000578005c
:101a18000a007800bcff07000004be008000eb004d
:101a28000a007800a8fe0700e04f500004003a00c2
:101a380094c0b30004759800900020004800370057
:101a48000a5a90000482fb009a5a9000c82add00c6
:101a5800050172000a6290000482fb001a6090007f
:101a68004800dd00000072008000eb00f8fb070072
:101a78005a6a90008045eb009e002000e04f52001b
:101a880002003a00220037000c04be006106440040
:101a9800e0864c00ea6290008582fb007a62900042
:101aa8004822dd00048272008a6290008582fb0071
:101ab8009a609000c808dd00818072008a6a9000f0
:101ac8008582fb001a6890004800dd0000807200e3
:101ad800d40290000042eb000801be00050001009e
:101ae800004278000e007800e04f520001003200fa
:101af8000000eb008b45e8005a6a90008b4f5200bb
:101b080005003600e00f5000dfff3200020037000a
:101b18000806be000000eb004a6390000683fb0045
:101b2800da629000c82add00850273000483fb0096
:101b380007002000861a560087925e004a629000cd
:101b48000482fb00da629000c82add008502720078
:101b5800450290000400a100c40298000075980096
:101b68004f0778004f06be004f05be004f04be0069
:101b780000000600ee874700889fbe008a9fbe00cf
:101b88008c9fbe008e1f780000077800e4b79f0086
:101b9800f5b79f004e6290000482fb00de62900061
:101ba800c82add008502720085bf9f006e6a90001a
:101bb8008442e900f8ff2f00f9ff2000e2cf52002d
:101bc80031013e00e34f520002003200f8ff2f00bf
:101bd80009002000e0cf500005003200110020006d
:101be8000e00780038fe07006044b8002601370070
:101bf800e14f520009003200e34f52000f003a0053
:101c0800421edd00ce16de008d0676004216dd008f
:101c18008043eb00e7e79f000c003700631ab90028
:101c28006311b8008301420061406100e0e79f0052
:101c38008306d1000286d300040037000206410063
:101c4800838649008040eb00e1e79f000e5a900030
:101c58000482fb009e5a9000c82add000505720028
:101c68002e5a90000482fb00be5a9000c82add005c
:101c7800850572000a01be000c00be006bfa070061
:101c88004e4390000683fb00de439000c83bdd0016
:101c9800070273006e4390000683fb00fe4390002a
:101ca800c83bdd00870273000003420081834a00bd
:101cb800c6b79f00d7b79f008fbb97002702900039
:101cc800b70290004fb09700dfb09700800f520026
:101cd800818f5a0025003200110020000e00780084
:101ce800f9fd0700e04f5000e70032006e629000f7
:101cf8000482fb00fe629000c82add0085027200a3
:101d08002e6290000482fb00be609000c808dd00cf
:101d1800810072000e6a90000482fb001e68900029
:101d28004800dd0000007200450290004fb19700a6
:101d3800dfb1970004000100e04f500006003a00b0
:101d48000082eb008082eb008fb89700a400980017
:101d5800b5009800cc0037004fb29700dfb297006b
:101d68000fbb9700240398003503980061055500c0
:101d7800e0855d000c0365000d826500050020000c
:101d8800c020dd00000020006132b80004007000af
:101d9800858070006e6a9000e34f52002d003a0073
:101da800ae6290008582fb003e6290004822dd0012
:101db80004827200cfeb9700077278002e629000c1
:101dc8000482fb00be629000c82add008502720012
:101dd800850240007fb2970006f02f00efb0970011
:101de8000103630007002000c838dd004833de0027
:101df80006837000c83bde00964298002e63900070
:101e08000683fb00be629000c82add0085027300cd
:101e180085024000a44298002e6390000683fb00d0
:101e2800be629000c82add008502730005004000ec
:101e380005f020000502620005002000482bdd00a7
:101e48004822de0004027300c82ade0034409800ed
:101e580088003700e24f520017003a00ae62900047
:101e68008582fb003e6290004822dd0004827200f9
:101e7800cfeb970007727800ae6290008582fb0076
:101e88003e6290004822dd00048272000400400097
:101e980004f02f00efb09700010262000500200057
:101ea800482bdd004822de0004027300c82ade0049
:101eb800144098006f003700e14f52006d003a005f
:101ec800ae6290008582fb003e6290004822dd00f1
:101ed800048272000002420094427800efe3970007
:101ee800e0cf530006003200efc262004600200037
:101ef800cfeb9700063bdd0086c272000100370079
:101f0800cfea9700054a780061004000e080480069
:101f18000e5b90000683fb009e5b9000c83bdd00d3
:101f2800070273002e5b90000683fb00be5b9000e7
:101f3800c83bdd008702730061025200e0825a004c
:101f4800000362000182620005002000c026dd0057
:101f58000c0020006132b800040676008586760001
:101f6800e00f5600e08f5e0026003a0011002000c6
:101f78000e00780054fd0700e04f50004200320088
:101f88004fb09700dfb0970061054000e08548003a
:101f98006e6290000482fb00fe629000c82add0099
:101fa80005027200ae6290008582fb00be60900060
:101fb800c808dd00818072008e6a90008582fb006f
:101fc8001e6890004800dd00008072004402900006
:101fd8000a01be0004000100e04f500006003a006c
:101fe8000082eb008082eb008fb89700a400980075
:101ff800b5009800240037000fba97002a0298000d
:102008003b029800ae6290008582fb003e62900021
:102018004822dd00048272000c0642001c4278004f
:10202800efe29700e0cf5200070032006fb397004d
:10203800ffb397004c38dd004432de000402700024
:10204800c43ade000a00370005cfb300054262003b
:102058006fb09700ffb09700c80bde00c80add001c
:102068004803de0006837200ef42630005427200f7
:10207800044e78000fbb9700460290000410a000a1
:10208800440398006044b8000800be004f07780079
:102098004f06be004f05be004f04be00ef00b10062
:1020a80000000600400a90008042eb00057298008c
:1020b800b00890002008900000000600200b900057
:1020c800b00b9000000a9000900a900004026b0088
:1020d80085826b000482720004f0a7000402ea0003
:1020e8000400e9004f00de00000006005dfb070069
:1020f80000027800b0002000e00f52000200320019
:10210800047090000080fb000000060055fb0700eb
:10211800e00f5000020032000042eb00047098000b
:10212800000006001142780005c2b300854f520036
:1021380028003a000400370011437800874f530005
:1021480003003a00080037000042eb0006003700a1
:10215800065878008100e8000442e8008542e9005a
:10216800f5ff3a00040037008100e8000442e80067
:10217800e74f5200fcff360005c2b30091cf1200b2
:1021880012003200eec2420005587800ea4f5200b1
:102198000e003e009142780006c2b30086cf52007e
:1021a80005003a0009003700d142780086cf520076
:1021b80002003a000500370006c2b300055878004f
:1021c8000442e800ea4f5200f7ff36000048eb00ef
:1021d80000000600045878008100e80075c0b300cc
:1021e80014c0b30007c2b300d3ff37008100e80072
:1021f80001004000904278000582fb004822dd0083
:1022080070f897000080fb000000720000000600d4
:10221800e380400001004000104378000683fb0083
:1022280007002000483add00c832de00850272004f
:102238004832dd00404378000683fb000700200099
:102248000403730085837300483add00c832de005a
:10225800850272004832dd00404378000683fb00a7
:10226800070020000603720087837200483add00e9
:10227800c832de00850272004832dd0070f897002f
:102288000080fb00010020000000720081807200c5
:1022980000000600f0874700889fbe008a9fbe00a6
:1022a8008c9fbe008e1f7800000778006e68900033
:1022b800e0ef9f00e14f50000f003200e34f500065
:1022c8001b003a00421ddd00ce15de008b057500af
:1022d8004215dd0084ff2f00f5ff2000b4b79f00f2
:1022e800c5b79f00fcff2f00fdff20008042eb00d8
:1022f800c5e79f0018003700631ab9006311b800da
:102308008301420061436100c6e79f008305d10055
:102318000285d30080ff200001002000b0b79f0095
:10232800c1b79f00fcff2f000d0020000a003700f6
:10233800020541008385490084ff2f000500200025
:10234800b4b79f00c5b79f00fcff2f000d00200009
:102358008042eb00c5e79f000e5a90000482fb0004
:102368009e5a9000c82add00050472002e5a90007b
:102378000482fb00be5a9000c82add008504720062
:102388000801be000a00be00a8f807004e439000ee
:102398000683fb00de439000c83bdd0007027300a4
:1023a8006e4390000683fb00fe439000c83bdd00af
:1023b800870273000003420081834a00d6b79f005a
:1023c800e7b79f0061025400e0825c000a036200e4
:1023d8000b80620001002000c005dd000a0020001b
:1023e8006130b8000005750081857500ce639000e6
:1023f8008783fb005e6390004833dd00068373002b
:1024080026049000b60490005fb09700efb09700e4
:10241800800f5400818f5c0088003a00efe8970035
:10242800e3cf500008003a002e6290000482fb00bf
:102438003e6090004800dd00000072008a007800cd
:1024480073ff0700110137006feb9700e24f53004d
:1024580009003a002e6290000482fb003e60900062
:102468004800dd00000072008a0078005fff070066
:1024780001002000050137006000b800efeb97006d
:10248800e1cf530001013a00ae6390008783fb005f
:102498003e6390004833dd000683730066437d0089
:1024a8000680fb0001002000f0b79f0081bf9f005d
:1024b800cfe09700e0cf5000080032007fb39700cc
:1024c8008fbb97004c38dd004433de0006037000f4
:1024d800c43bde00f6b79f0087bf9f00610545003b
:1024e800e0854d000a0362000b82620005002000af
:1024f800c025dd000a0020006132b800040575001f
:1025080085857500e00f5500e08f5d002c003a00ce
:10251800110020000e007800ebfb0700e04f500090
:10252800e100320061044400e0844c006e629000d7
:102538000482fb00fe629000c82add00850272005a
:102548002e6290000482fb00be609000c808dd0087
:10255800810072000e6a90000482fb001e689000e1
:102568004800dd0000007200450290000801be002e
:1025780004000100e04f50000a003a004e6290004b
:102588000482fb00de629000c82add0005027200aa
:102598000083eb008083eb00260298003702980046
:1025a800c10037004e6290000482fb00de6290009a
:1025b800c82add0005027200280298003902980036
:1025c800ae6290008582fb003e6290004822dd00ea
:1025d8000482720064427d000482fb000500200032
:1025e800cfe09700e0cf5000090032004428dd001a
:1025f800cc20de00810070004420dd007fb297000f
:102608008fba970004004000858048009f0037007b
:102618006f026200050020004828dd00c820de00a7
:10262800810070004820dd007fb397008fbb9700c2
:102638000600400087804800940037001100200001
:102648000e007800a0fb0700e04f50009600320013
:10265800ee6290008582fb007e6290004822dd00d9
:1026680004827200ae6290008582fb00be6090001a
:10267800c808dd00818072008e6a90008582fb00a8
:102688001e6890004800dd0000807200440290003f
:102698005fb19700efb1970004000100e04f5000d0
:1026a8000a003a00ce6290008582fb005e629000cc
:1026b8004822dd00048272000083eb008083eb0077
:1026c800260298003702980077003700ce62900003
:1026d8008582fb005e6290004822dd000482720061
:1026e8005fb09700efb09700200298003102980081
:1026f8006e6a9000e34f520008003a002e62900084
:102708000482fb003e6090004800dd00000072007b
:102718008a007800befe07005c003700e24f5200d6
:1027280009003a002e6290000482fb003e6090008f
:102738004800dd00000072008a007800abfe070048
:1027480001002000510037006000b800e14f52003e
:102758004e003a00ae6290008582fb003e62900017
:102768004822dd000482720064407d000080fb0086
:1027780001002000cfe29700e0cf52002400320091
:102788004c0bdd004400de0000007300c408de00ce
:1027980061054500e0854d008e5a90008582fb005a
:1027a8001e5990004811dd0002837200ae5a900055
:1027b8008582fb003e5990004811dd00828372003b
:1027c80061035300e0835b008a0263000b816300ae
:1027d80003002000c013dd00060020006129b800b6
:1027e800020373008383730064437b000683fb004a
:1027f80007002000443add00cc32de00850272007a
:102808004432dd0004004000858048001f00370086
:1028180061054500e0854d008e5a90008582fb00d9
:102828001e5990004811dd0002837200ae5a9000d4
:102838008582fb003e5990004811dd0082837200ba
:1028480061035300e0835b008a0263000b8163002d
:1028580003002000c013dd00060020006129b80035
:10286800020373008383730064437b006f03630078
:1028780007002000483add00c832de0085027200f9
:102888004832dd0004004000858048000006be0094
:102898003fb09700cfb09700800f5600818f5e0041
:1028a800010036000006be000c00be004f0778008d
:1028b8004f06be004f05be004f04be000f01b10019
:1028c800000006000800fa00889fbe008a9fbe002c
:1028d8008c9fbe00800578000204be004b0d90005e
:1028e8006a6a9000e14f520014003200e34f520030
:1028f80009003a0084ff2f00f5ff2000e4b79f008d
:10290800f5b79f00f6ff2f00f7ff200086bf9f0056
:1029180097bf9f001100370084ff2f00050020009b
:10292800e4b79f00f5b79f00f6ff2f0007002000cf
:1029380086bf9f0097bf9f000800370084ff2000d4
:1029480005002000e4b79f00f5b79f00f6ff2f00b1
:102958000700200086bf9f0097bf9f008c002000c3
:102968006d0220006b019000fb0190000a007800c6
:1029780048fe07008c0278000fbb97009fbb9700aa
:10298800860f5000878f5800170032004a53900076
:102998000683fb00da539000c83bdd000702730092
:1029a8006a5390000683fb00fa539000c83bdd0091
:1029b8008702730062034200e0834a00a5002000fa
:1029c800860f5000878f5800010031008002eb000d
:1029d8006fb39700ffb39700860f5000878f58009a
:1029e800010039008d027800e0059800f105980093
:1029f80061045400e0845c0002003200e08f520061
:102a0800d8ff3200050078004f06be004f05be0013
:102a18004f04be000080fa0000000600f28747005d
:102a2800889fbe008a9fbe008c9fbe008e1f7800c4
:102a3800830678004d0e90001d1a90006202620015
:102a480005003a0004c2b300047698000001eb00c8
:102a5800b2b79f00bb0037000191b90002027800ad
:102a6800c4b79f00e00f520004003a0004769800b3
:102a78008002eb00b5b79f00b2003700000778006e
:102a88000003eb00b6b79f001a0020000b002000df
:102a98006d0b9000070020000c5890000080fb0090
:102aa8009c589000c808dd00010270002c58900066
:102ab8000080fb00bc589000c808dd00810270004f
:102ac800840f5300858f5b0011003a008003eb00f0
:102ad800e70e98005d0a90000402e800d40e980002
:102ae800dc6a90008582fb00850f520008003a00de
:102af800d70e98000a01be000d00780071ff07008c
:102b0800e00f500002003200007698008d00370078
:102b18006d019000fd0190000c0078007afb070021
:102b28005d0c900008044000e0844800cc629000ee
:102b38008582fb005c6290004822dd0004827200fe
:102b4800b40f1400a48f1c00270032008000eb0093
:102b58000c0078005cfa0700e04f500005003a00ce
:102b680094c0b3000476980092002000b2b79f008a
:102b780074003700ec6290008582fb007c62900054
:102b88004822dd00048272008c6290008582fb007e
:102b98009c609000c808dd00818072008c6a9000fb
:102ba8008582fb001c6890004800dd0000807200f0
:102bb800440290000801be0004000100e04f5000ec
:102bc80003003a0084c0b300047698005d00370023
:102bd800cc6290008582fb005c6290004822dd0098
:102be80004827200088abe006d0a90008c5a900018
:102bf8008582fb001c5890004800dd0000837200ad
:102c0800ac5a90008582fb003c5890004800dd00db
:102c18008083720004035300e0835b00cfb1970008
:102c2800611cb800860f5400878f5c0001003600d5
:102c38000604be000d0890009d0890002d0b900022
:102c4800bd0b9000f6b79f0087bf9f00060150009c
:102c58008781580092b79f00a3b79f006143b800cf
:102c6800d6b79f00e7b79f00860f5100878f59009e
:102c7800190031007fb397008fbb970006045000fe
:102c88008c6290008582fb009c609000c808dd0083
:102c98008180720084804000080178000e0078006e
:102ca80064f707006d0a900008024200e40e9800dd
:102cb8002d0a9000bd0a900008024200e0824a00f6
:102cc800a40e9800b50e9800bfb397008883430000
:102cd800b7b79f001b0037008c6290008582fb000d
:102ce8009c609000c808dd008180720084804000ec
:102cf800080178000e0078004ef707006d0a900072
:102d080008024200e40e98002d0a9000bd0a9000c7
:102d180008024200e0824a00a40e9800b50e98000e
:102d28003fb1970008014100b2b79f00cfb19700ab
:102d380088815100c3b79f0002003200080747008e
:102d480053ff37003fb097004f0778004f06be008b
:102d58004f05be004f04be002f01b1000000060061
:102d68000200fa0080017800120020001100200003
:102d78000f80e90029ff0700000278000080eb00bf
:102d8800e10f520002003a006ffa97000400fb00be
:102d98000080fa0000000600ea874700889fbe000e
:102da8008a9fbe008c9fbe008e1f78000004be0064
:102db800820678006d6a9000e14f520014003200dc
:102dc800e34f520009003a0084ff2f00f5ff20006e
:102dd800d4b79f00e5b79f00f4ff2f00f5ff200050
:102de800f4b79f0085bf9f001100370084ff2f00b4
:102df80005002000d4b79f00e5b79f00f4ff2f001f
:102e080005002000f4b79f0085bf9f000800370029
:102e180084ff200005002000d4b79f00e5b79f007d
:102e2800f4ff2f0005002000f4b79f0085bf9f0026
:102e38001c022000fe002000e10f5400e08f5c001f
:102e480002003e00220037000a04be000801be004e
:102e58000d0078000ffd07000005be007fb2970047
:102e68008fba9700840f5000858f580024003200d5
:102e78001400200005002000840f5000858f5800a2
:102e8800210036000e0678005fb29700efb2970077
:102e9800800f5200818f5a00010036000006eb00b7
:102ea8008040eb006022b8000801be000d007800e9
:102eb80030fb07007fb297008fba9700840f50004d
:102ec800858f580012003200e00f5600deff3200f6
:102ed80011c0b3006022b8000401be000d007800e4
:102ee80024fb07000c0078004f0778004f06be004f
:102ef8004f05be004f04be00af00b1000000060041
:102f0800fc002000f2ff37001c022000f0ff370011
:102f18009c002000eeff3700e6874700889fbe0030
:102f28008a9fbe008c9fbe008e1f780080bf9f00c6
:102f3800f1b79f000204be008406780020059000c7
:102f48000a5b90000683fb009a5b9000c83bdd009b
:102f5800070273002a5b90000683fb00ba5b9000af
:102f6800c83bdd00870273004b28dd004522de00e8
:102f780004027000c52ade000487fb001100090066
:102f88008e86d800800578006a6a9000e34f520068
:102f9800170032001802be00e00f5200e08f5a00fe
:102fa80013003a00aa6a90008582fb003a6a9000f2
:102fb8004822dd0004827200848f56000500390023
:102fc800f4002000ffb29700840a78000000eb00ac
:102fd8007c0037000fbb97001601be000a0078007e
:102fe80049fa07000b044000e08448003900370024
:102ff8005a6e90000c86fb00110009008c85d800e1
:1030080000067800990f560004003100800ceb0090
:103018000fba9700341c780024147800190278003d
:103028005a6b90000683fb0006a3b90086855500fd
:10303800840f5600220036001801be000a007800ee
:1030480094fc0700008cbe006a6a9000e34f5200af
:103058000a003a0084ff2f00f5ff2000840f50007b
:10306800858f58000f003a00f4002000ffb2970047
:10307800840a78000000eb005200370084ff2f001c
:1030880005002000840f5000858f580005003a0085
:10309800f4002000ffb29700840a78000000eb00db
:1030a800480037001902e800840c7800da6a9000ba
:1030b8008582fb0085855500840f5600deff3e00a3
:1030c8001801be000a0078000ffa07000b04400040
:1030d800e0844800ca6290008582fb005a62900032
:1030e8004822dd0004827200b40f1400a48f1c0073
:1030f800290032008000eb000a007800f2f807008f
:10310800e04f500005003a00940020007fb397007c
:10311800040b78000000eb002a003700ea629000f8
:103128008582fb007a6290004822dd0004827200ea
:103138008a6290008582fb009a609000c808dd00d2
:10314800818072008a6a90008582fb001a6890006c
:103158004800dd0000807200440290000801be00b3
:1031680004000100e04f500005003a0084002000f0
:103178007fb09700040878000000eb0011003700ca
:10318800ca6290008582fb005a6290004822dd00e6
:1031980004827200088abe000a6290000482fb0062
:1031a8001a6090004800dd0000027200110009005a
:1031b8008e86d800c50edd000d0042007fb2970054
:1031c800000aeb004f0778004f06be004f05be000f
:1031d8004f04be006f00b100000006000e00fa00a8
:1031e800889fbe008a9fbe008c9fbe0000057800a5
:1031f800824678004a0c9000910478001400200060
:10320800b4b79f00e8b79f001a02be00c4b79f007a
:10321800d5b79f00f4b79f0085bf9f000002eb0061
:1032280094bf9f0009027800ee8157007281570011
:10323800fa8057007880570037ff0700e00f5000ea
:103248000a00320090427800fbcf42000f003200a3
:103258005bceb3000c042000e0cf52000f003a0010
:103268000a003700e00f500003003a003fb0970013
:10327800007498005500370090427800fbcf420058
:1032880002003200e0cf520004003a00c4c0b3008c
:1032980004749800c00020004c0037000b487800e8
:1032a800486290000482fb00586390004833dd00b8
:1032b80006037200460290000400a0004403980030
:1032c800304a9000ef4f520002003a008502660033
:1032d8000c003a00e08f54000a0032008904e9002b
:1032e80009027800ee81570072815700fa80570072
:1032f8007880570008ff0700304a9000ef4f5200cf
:10330800d8ff32003fb29700e00f520019003a0090
:103318004a009000da009000484b90000683fb00ba
:10332800d84b9000c83bdd0007027300684b900043
:103338000683fb00f84b9000c83bdd008702730052
:10334800840f5000858f58000a003200e0cf5600e5
:1033580008003200080178008ffe0700000278009c
:1033680004f0a7000402ea000402e9004f22de008c
:10337800b4b79f004a0890008000eb0052f807009d
:10338800e04f500005003a004a0a900095c0b3008b
:10339800057298000080eb000c0037004a08900086
:1033a8001100200048f80700e04f500005003a00df
:1033b8004a0a900095c0b300057298000080eb009f
:1033c800020037003fb09700007498004f06be0017
:1033d8004f05be004f04be000080fa000000060042
:1033e8001400fa00889fbe008a9fbe008c9fbe0012
:1033f8000004780001057800824578000406be00c4
:103408000002eb0084b79f00e4b79f001802be00db
:1034180094b79f00a5b79f00480b9000b6b79f00d0
:10342800c4b79f00d5b79f001a027800f4815700ef
:103438007881570001fe2f008f8040007e80570062
:10344800b5fe070080047800e08f540005003a00bc
:10345800480a9000d5c1b30005729800d001200039
:103468004e0037007102200088804000b200200022
:103478000900780084f50700bb4c98000042eb0077
:10348800c44c9800dc0c9800f4ff20000d02620088
:1034980005002000c023dd00060020006022b800df
:1034a800a70c9800e40c9800f50c9800c464800000
:1034b800e00f520002003200728057000400010041
:1034c8002ff29700d44c98008fba9700f504980013
:1034d8007fb29700840c9800b50c9800c40c980033
:1034e8004c0498005d0498006c0498007d049800d2
:1034f8000002eb00540c9800640c98006022b8009d
:10350800240c9800350c9800690a9000f90a90007c
:10351800040c9800150c9800394a90000482fb00ae
:10352800041498007002620007003200d94a900023
:10353800656498007903900016149800890c90002f
:103548002914980004003700390a900014149800d0
:10355800c90c9000291498001a0578007a0c980074
:103568001fb29700afb29700048cbe0024049800e5
:1035780035049800480a9000446390000683fb00d5
:10358800d4629000c82add008502730045029000cd
:103598000400a000c40298000fb097004f06be00b8
:1035a8004f05be004f04be000080fa000000060070
:1035b800ee874700889fbe008a9fbe008c9fbe0092
:1035c8008e1f780080057800c1b79f00f2b79f0072
:1035d800030678008406780085047800d6b79f0033
:1035e80087bf9f000002eb00b4b79f0087027800f6
:1035f80068876200070037008a04780005003700f2
:103608008a047800030037008a0478000100370034
:103618008a047800090278000c01be00fa8057007d
:103628000b0078003cfe0700000478003fb09700cc
:10363800ef0f50005a003200fd0f500004003a000e
:103648002b029000d5c1b3000572980057003700cf
:103658000905e800384a9000ef4f52000600320092
:10366800e84f52000400320056ceb300984f1300c2
:1036780054003a00e0ff37000042eb00984f120078
:10368800dfff3a00f000200048003700e00f570045
:10369800050032000482fb005fb3970084026300d8
:1036a800850f5200d8ff3a00e8b79f000ff1970046
:1036b800880078007fb0970052f80700e04f50006c
:1036c800d3ff3200cfb297006fb397007402200087
:1036d800048242000a000900365a7800b600b10098
:1036e8002b039000c60a9800080078005cf70700d2
:1036f8004fb297004002980051029800600298006b
:10370800710298000002eb00cfb29700d40a98002b
:10371800e40a98006022b8004fb39700240b980081
:10372800350b9800680a9000f80a9000040b98007e
:10373800150b9800384a90000482fb000413980087
:103748007002620007003200584a900064639800d3
:10375800f802900015139800080c900028139800a0
:1037680005003700380a90004fb3970014139800eb
:10377800480c900028139800cfb29700f90a9800d7
:10378800bb1a7800ab1278001b02be004fb397003b
:1037980024039800350398000000eb00030037006d
:1037a800f000200001003700f00020004f077800eb
:1037b8004f06be004f05be004f04be00ef00b1002b
:1037c800000006008042eb0098cf1200afff3a00dd
:1037d800f5ff37004200fa00889fbe000001eb00a9
:1037e800d2bf9f00800078007080570025f707003f
:1037f80080047800e08f540005003a0015c2b30039
:1038080054658000057298000080eb004f00370077
:103818000fba97009fba9700b4bf9f00c5bf9f001b
:103828002fba9700646390000683fb00f46290004f
:10383800c82add0085027300046b90000683fb0034
:10384800146890004800dd000000730065029000d5
:1038580004000100e04f500005003200a5c1b3008c
:103868002fba9700057298000080eb0037003700e8
:103878008040eb000900780036f60700e04f500062
:1038880002003200e34f500005003a0035c1b30092
:103898002fba9700057298000080eb002b003700c4
:1038a800e14f500015003a000fba97009fba9700f1
:1038b800b4bf9f00c5bf9f000004eb00d8bf9f00a6
:1038c800a1fb2f008f80400009007800a4f60700b4
:1038d80027002000080378008802780066825700d5
:1038e800ea8157007f815700a1fb2f008f8040009d
:1038f800708057002eff070000047800e00f540086
:103908000f003a00cfaa9700f5b79f005faa97006b
:10391800700262004801200009003a0012c0b3009a
:10392800f2805700a0fb2f000f0040002bfe07007d
:10393800000478000000eb00800f54000300320000
:103948002fba9700087298000080eb004f04be0061
:103958000080fa00000006004200fa00889fbe00be
:103968008a1f7800010578000001eb00c2bf9f00a4
:103978008000780072805700c2f607008004780043
:10398800e08f540005003a0015c2b300546580006a
:10399800057298000080eb00930037007fb2970013
:1039a8008fba9700a4bf9f00b5bf9f001fba9700aa
:1039b800646390000683fb00f4629000c82add006f
:1039c80085027300046b90000683fb001468900066
:1039d8004800dd000000730065029000040001004b
:1039e800e04f500005003200a5c1b3001fba970090
:1039f800057298000080eb007b0037008040eb00e8
:103a08000a007800d3f50700e04f500002003200aa
:103a1800e34f500005003a0035c1b3001fba9700c4
:103a2800057298000080eb006f003700e14f5000ee
:103a380016003a007fb297008fba9700a4bf9f0084
:103a4800b5bf9f000004eb00c8bf9f0081fb2f009b
:103a58008f8040000a00780041f607002700200008
:103a6800080378008802780068825700ec815700c4
:103a7800f2fd2f000f01410081fb2f008f804000d5
:103a880072805700cafe0700e0b79f006fb2970028
:103a9800e00f520005003a0025c1b3001fba970095
:103aa800057298000080eb004f0037008040eb0063
:103ab80009007800a7f507000002eb00c4bf9f00cb
:103ac8007fb297008fba9700a4bf9f00b5bf9f0031
:103ad800e04f500002003200e34f500005003a006a
:103ae80035c1b3001fba9700057298000080eb003b
:103af8003d003700e14f500010003a0081fb2f00d5
:103b08008f8040000900780015f607002700200084
:103b18000003eb008602780068825700ec815700aa
:103b2800f2fd2f000f01410081fb2f008f80400024
:103b3800728057009efe0700e0b79f006fb29700a3
:103b4800e00f520005003200c5c0b3001fba97004d
:103b5800057298000080eb00230037003faa970009
:103b6800e88157006c815700f48057007280570035
:103b7800e9fc07000004780081fb2f008f804000db
:103b88000a007800f6f50700f5fd2f00858247004a
:103b98000a000900355c7800b800b1001fb897002a
:103ba800406290000482fb00d0629000c82add00c9
:103bb80085027200450290000400a000c40298002b
:103bc8008000eb0040f60700004278000000eb00a0
:103bd800e04f520004003a0095c0b3001fba9700a6
:103be800057298000080eb004f0578004f04be0076
:103bf8000080fa00000006000800fa001102be006a
:103c0800d4bf9f00e5bf9f000002eb00f4bf9f00f8
:103c1800710a90008f81e90066815700e88057009b
:103c2800bdfc0700000278000040eb00e00f5200e6
:103c380009003200a40a900010c0b300e08f5200bf
:103c480005003a005408900000f0a7000000ea00c0
:103c58000000ea004f00de000080fa0000000600c5
:103c68001400fa00889fbe00000478000002eb00f0
:103c7800c4bf9f00181a9000610262000000eb00a8
:103c8800800f520059003200480890008000eb0075
:103c98000df60700e04f500005003a00480a900072
:103ca80095c0b300057298000080eb004f00370004
:103cb800480890001100200003f60700e04f50006c
:103cc80005003a00480a900095c0b30005729800b4
:103cd8000080eb004500370068019000f801900073
:103ce800480890006bf90700480a900094bf9f00ad
:103cf8001802be00f4b79f0085bf9f00a4bf9f00b5
:103d0800b5bf9f00780a9000e88157006c81570082
:103d1800e6805700728057007ffc07008004780017
:103d2800e08f540005003a00480a9000d5c1b3005e
:103d3800057298000080eb002c003700c4648000f6
:103d4800e00f5200020032007880570004000100a2
:103d5800dfb29700b50c98004fb29700c40c9800da
:103d6800080a9000980a9000e40c9800f50c980056
:103d780088629000b54c9800480a9000446390000f
:103d88000683fb00d4629000c82add008502730018
:103d9800450290000400a000c40298004808900062
:103da8008000eb00c8f50700e04f50000b00320020
:103db800c80c9000090078003cf607008074980051
:103dc800480a9000047290000080eb00e04f520017
:103dd80006003a000000eb0004003700480a900093
:103de80095c0b300057298000080eb004f04be0038
:103df8000080fa0000000600881f780000047800a0
:103e08000800780096ff0700181a90000410a10017
:103e18000400a100141c98004f047800000006005c
:103e28000800fa00889fbe008a9fbe008c1f780099
:103e3800000678000205be006c6a9000e14f52004f
:103e480014003200e34f520009003a00f4ff2f003b
:103e5800f5ff200094bf9f00a5bf9f0074ff2f00af
:103e6800f5ff2000f4b79f0085bf9f0011003700c1
:103e7800f4ff2f000500200094bf9f00a5bf9f00fe
:103e880074ff2f0005002000f4b79f0085bf9f0036
:103e980008003700f4ff2f000500200094bf9f00a2
:103ea800a5bf9f0074ff200005002000f4b79f0005
:103eb80085bf9f00e10f5500e08f5d0006003e00c2
:103ec8002a0020000b0020000a04be00070037006b
:103ed8000a04be0005003700e00f5500e08f5d00c2
:103ee800fbff3a000a04be00310037000801be009b
:103ef8000c007800e7f807001fba9700afba9700e0
:103f0800840f5000858f580026003200e00f5000c3
:103f1800e08f5800260032007fb297008fba9700d2
:103f2800840f5000858f580012003200610444004d
:103f3800e0844c004c5390000683fb00dc53900057
:103f4800c83bdd00070273006c5390000683fb003a
:103f5800fc539000c83bdd008702730062024200f8
:103f6800e0824a00840f5400858f5c000400310011
:103f78000500370028002000090020000200370053
:103f880028002000090020008a0f54008b8f5c0055
:103f980006003200e00f5400e08f5c00d3ff3a00c7
:103fa800030037006044b800010037006044b800df
:103fb8000800be004f0678004f05be004f04be0043
:103fc8000080fa0000000600889fbe008a9fbe009d
:103fd8008c1f78000005be00024678001b01be0059
:103fe8000a0078008eff07000004be007001200060
:103ff800e00f5400e08f5c00270032006a6a9000ee
:10400800e14f520007003a008040eb0084ff200097
:10401800050020000801be000a007800d5f6070058
:1040280011003700e24f520007003a008040eb00d1
:1040380084ff2f00050020000801be000a00780058
:10404800ccf6070008003700e34f520006003a009c
:104058008040eb0084ff2f00f5ff20000801be0020
:104068000a007800c3f607008040eb000802be0093
:104078001b01be000a007800bef60700888dbe004e
:104088000000eb00e04f5600030032000801be00bc
:104098000a00780059f607004f0678004f05be0061
:1040a8004f04be0000000600e4874700889fbe005a
:1040b8008a9fbe008c9fbe008e1f78008006780005
:1040c800830578004b0d90001b1a90006102620076
:1040d80004003a00f4c1b300047598000007eb002f
:1040e800b70037000191b90002067800e00f5600ca
:1040f80004003a000042eb00047598000007eb004a
:10410800af003700ea6290008582fb007a62900077
:104118004822dd00048272008a6a90008582fb00d2
:104128001a6890004800dd00008072006402900068
:1041380004000100e04f500004003200a4c1b300a5
:10414800047598000007eb009d0037000007eb009e
:104158006c82450084bf9f006b0b90000700200015
:104168000a5890000080fb009a589000c808dd00ab
:10417800010270002a5890000080fb00ba58900095
:10418800c808dd0081027000840f5300858f5b0032
:104198001e003a000002eb00e40d98005b0a900054
:1041a8000402e800d40d9800da6a90008582fb00ca
:1041b800850f520015003a006b049000fb04900034
:1041c8000002eb00d40d980012002000030020002c
:1041d8000b007800bbf9070064022000840f500030
:1041e80006003a00e8059800f90598000041eb0040
:1041f8008fb897000a00780073ff0700e00f50009f
:1042080002003200007598006d0037006b019000c5
:10421800fb0190000a007800bbf507005b0c9000da
:1042280008044000e0844800ca6290008582fb00d0
:104238005a6290004822dd0004827200b40f140014
:10424800a48f1c00260032008000eb000a007800d2
:104258009df40700e04f500004003a0094c0b300fa
:10426800047598009e00200055003700ea6290000f
:104278008582fb007a6290004822dd000482720089
:104288008a6290008582fb009a609000c808dd0071
:10429800818072008a6a90008582fb001a6890000b
:1042a8004800dd0000807200440290000801be0052
:1042b80004000100e04f500003003a0084c0b3003e
:1042c800047598003e003700ca6290008582fb00a2
:1042d8005a6290004822dd0004827200088abe00fb
:1042e8006b0b90008a5b90008783fb001a58900044
:1042f8004800dd0000827300aa5b90008783fb0002
:104308003a5890004800dd0080827300060252008f
:10431800e0825a006161b800840f5100858f59000e
:10432800010036000401be00020478000a62900011
:104338000482fb001a6090004800dd000000720053
:10434800060040008d007800baf107004a6290002c
:104358000482fb00da629000c82add008502720040
:10436800450290000400a000c40298006b0a900067
:1043780008024200e40d98000807470008065600a6
:10438800020032008886460073ff37006172b80069
:104398000b0b90009b0b90000603420087834a009a
:1043a800860d9800970d98002b0b9000bb0b900082
:1043b8000602420087824a00a40d9800b50d9800b5
:1043c8000e0078004f0778004f06be004f05be006c
:1043d8004f04be004f00b100000006000200fa00c2
:1043e800e0ff9f00810178001200200011002000ea
:1043f8000f80e9002cff0700000278000000eb00a6
:10440800e10f5200010032000080eb000080fa004a
:1044180000000600e4874700889fbe008a9fbe0010
:104428008c9fbe008e1f780080bf9f00000278001e
:10443800440f9000e18f500003003200e28f5000db
:104448000d003a00060037008fba9700250e90003d
:10445800b50e90000206460083864e00070037001e
:104468000fbb9700060e9000960e900002065600ad
:1044780083865e00010037000206be008000eb0064
:104488000e00780010f40700e04f500004003a00d6
:1044980094c0b300047798000080eb00aa003700ae
:1044a8000fba9700d4029000440290000fbb970007
:1044b8006403980075039800060a9000960a900015
:1044c800840f5600858f5e000400360014c2b300c6
:1044d800047798000080eb009b0037008fba9700a4
:1044e800ac0a9800bd0a98000e5a90000482fb009e
:1044f8009e5a9000c82add00050572002e5a9000c9
:104508000482fb00be5a9000c82add0085057200af
:104518000a01be000c00be0044f007000004be0003
:104528000acab90000dbb900040243000a05b80052
:104538008b0542000a0556008b855e000fbb97006d
:104548006a0b98005e6e90000c86fb000d00200040
:104558000c01be0035f007000005be000cdab900fa
:104568000c06b8008d0642000c0454008d845c00d3
:104578000fba9700580a9800e00f5000e08f5800d3
:10458800470032000001be0004007800cdf80700a3
:10459800e04f50004200320064c2b300844f500024
:1045a8003b003a008fba9700151a9000610262002a
:1045b8001800320005027800d402900044029000ee
:1045c8000fbb97006403980075039800e10f55002e
:1045d800e08f5d000400320061015500e0815d005c
:1045e80006007800b7f807008fba9700ec80420001
:1045f8000041eb000e00780073fe0700e00f50004a
:104608002700320004c1b300047798000080eb0053
:104618004d0037000fba9700d40290004402900072
:104628000fbb97006403980075039800e10f5500cd
:10463800e08f5d000a00320061015500e0815d00f5
:10464800060078009ff80700e04f50000400320091
:1046580004c1b300047798000080eb003a003700eb
:104668000e5b90000683fb009e5b9000c83bdd005c
:10467800070273000fbb9700640b98005e6a9000f6
:104688000482fb000402e900540b98000400370080
:1046980004c1b300047798000080eb002a003700bb
:1046a8000fba970064019000f40190000e007800a2
:1046b80095f407008fba9700550c90000804400045
:1046c800e0844800ee6290008582fb007e629000e4
:1046d8004822dd00048272008e6290008582fb0011
:1046e8009e609000c808dd00818072008e6a90008c
:1046f8008582fb001e6890004800dd000080720083
:10470800440290000801be0004000100e04f500080
:1047180004003a00d4c1b300047798000080eb008d
:1047280009003700ce6290008582fb005e6290002f
:104738004822dd0004827200088abe000042eb00b5
:10474800047798000000eb004f0778004f06be0082
:104758004f05be004f04be004f00b1000000060028
:104768000e00fa00889fbe008a9fbe008c1f78004a
:1047780080047800010678000003eb00c6b79f00ac
:104788001902be0084bf9f0095bf9f00a6bf9f006f
:10479800490b9000f6b79f00d4b79f00e5b79f007c
:1047a8001c0478000fbd97009fbd97000802780091
:1047b800ec81570070815700f880570076805700c9
:1047c800d5f907008802e800e00f50000700320022
:1047d80010427800fb4f420024003200e04f5200a4
:1047e8002200320005047800eeff370049089000e7
:1047f800404b90000683fb00d04b9000c83bdd0087
:1048080007027300604b90000683fb00f04b90009a
:10481800c83bdd00870273000fbb97009fbb970062
:10482800860f5200878f5a0003003a00606a900092
:10483800e34f520010003a008abf9f009bbf9f00c1
:1048480012c0b300f0805700dffd0700f70f5000db
:1048580006003a00080037004f0678004f05be00f2
:104868004f04be000080fa0000000600080e780021
:104878000000eb00f8ff3700080e7800f000200079
:10488800f5ff3700889fbe008a9fbe008c1f780006
:10489800800578004b0d90002200200003002000c6
:1048a8000a0078005efd07000004be007c012000bd
:1048b800e00f5000e08f5800250032006a6a90002f
:1048c800e14f52000a003a008040eb0084ff2000cc
:1048d800050020000801be000a007800a5f40700c2
:1048e800e10f4000e08f580029003a001700370018
:1048f800e24f52000a003a008040eb0084ff2f008c
:10490800050020000801be000a00780099f407009d
:10491800e10f4000e08f58001d003a000b003700ff
:104928008040eb0084ff2f00f5ff20000801be0047
:104938000a0078008ff40700f4ff2f00f5ff20002d
:10494800840f5000858f580011003a009c00200009
:10495800110020000a007800dbf20700e04f500049
:1049680001003a009c002000c8059800d90598006d
:10497800e8059800f90598000c7598000800be0035
:104988004f0678004f05be004f04be000000060029
:104998000801be000a00780018f407000006780035
:1049a800ebff3700889fbe008a9fbe000004be0050
:1049b8008245780003457800800ceb000800be00b3
:1049c80067ff070065012000e00f50000e003a0065
:1049d8006000b800e04f550006003200080078007b
:1049e800a8ff0700480a9000847290008582fb00a7
:1049f80005003a000002be000b4178000800be0026
:104a080077fa070080027800480a9000057298003b
:104a1800050078004f05be004f04be0000000600e8
:104a28000e00fa00889fbe008a9fbe00000478002e
:104a3800820478000001eb00b2bf9f007480570029
:104a480090f20700000578000080eb00e00f5500a9
:104a58008d0032006fb29700ffb2970094bf9f009d
:104a6800a5bf9f000fba9700646390000683fb0000
:104a7800f4629000c82add0085027300046b900080
:104a88000683fb00146890004800dd0000007300f6
:104a98006502900004000100e04f5000070032005a
:104aa8006e82640005003200a5c1b3000fba9700fa
:104ab800057298000080eb0073003700e00f540087
:104ac80005003a0025c2b3000fba97000572980096
:104ad8000080eb006c0037008040eb000a00780093
:104ae8009cf10700e14f500016003a006fb29700a2
:104af800ffb2970094bf9f00a5bf9f008005eb0001
:104b0800bbbf9f00880078000a00780014f20700f5
:104b18007202200008014100270020000b037800e2
:104b28008b0278006a825700ee815700880078006f
:104b3800748057009efa07008b0f50000600320061
:104b48001700370035c1b3000fba970005729800f7
:104b58000080eb004c0037006882640005003a00d2
:104b6800880078007480570023fc0700e04f50004d
:104b780009003a00f80a9000d5b79f0012c0b300a8
:104b8800f68057000800780094f90700e00f5000fd
:104b98000f003200390037000920a1000d0037004e
:104ba800ef0f500035003a00648264003300320091
:104bb8000fba9700440c98006fb29700ffb29700a5
:104bc800048cbe00240498003504980001003700c6
:104bd8000920a00064826400090032000001eb0093
:104be800d2b79f0013c0b300f680570008007800c2
:104bf8006cff0700e00f500020003a000940a000b9
:104c08006182640004003200181a90000410a000a9
:104c1800141c980003003700181a90000410a10013
:104c2800141c98006282640004003200181a900074
:104c38000400a000141c980003003700181a900004
:104c48000400a100141c9800f08464000000eb002c
:104c5800808f54000c003200210020006011b80041
:104c680008007800ebfd0700000278000000eb0068
:104c7800800f520004003200c00120000fba9700d4
:104c8800007298000080eb004f05be004f04be0084
:104c98000080fa0000000600f8874700889fbe00e1
:104ca8008a9fbe008c9fbe008e1f7800000578008a
:104cb800ea6290008582fb007a6290004822dd005b
:104cc800048272008a6290008582fb009a609000dc
:104cd800c808dd00818072001a4178008282fb00da
:104ce8001a4390004833dd0006817200aa42900002
:104cf8008582fb003a4390004833dd0086817200cc
:104d08008a6a90008582fb001a6890004800dd00de
:104d18000080720044029000040001000042780004
:104d280080002000e04f5200620132004a62900089
:104d38000482fb005a6390000033dd000603720012
:104d48009a4178008383fb001a4090004800dd00f8
:104d580000827300aa4390008783fb003a409000ca
:104d68004800dd0080827300048bbe000a62900058
:104d78000482fb009a659000c85ddd008b05720017
:104d88000046eb008c467800020037001cc0b300d8
:104d98001dc0b300ebfa93003000200054c5b300e7
:104da80084cf5200dd003a00fbfa9300a4cab30096
:104db80084cf5200d9003a000a6290000482fb00b6
:104dc8001a6790008e027800482fdd000e077200e7
:104dd800e10020000e00780004f507005e4b90000b
:104de800c6e79f00566d98006101b80082b79f0022
:104df80093b79f009a4178000382fb009a42900083
:104e0800c82add00050472002a4290000482fb00d3
:104e1800ba429000c82add00850472000fb29700dc
:104e28009fb297000404440085844c0048459800cc
:104e38004842de005445980069459800484ade001b
:104e4800744598008e529000e5ef9f00456d9800dc
:104e5800610120000e007800e4f407000100200042
:104e6800405d98004802de00545d9800615d98003e
:104e7800480ade00745d9800e00f5000e08f58008b
:104e880009003a00410220000e007800e0f4070013
:104e9800405d98004802de00545d9800615d98000e
:104ea800480ade00745d98004a5b90000683fb00a8
:104eb800da5b9000c83bdd00070273006a5b900074
:104ec8000683fb00fa5b9000c83bdd008702730095
:104ed8006feb97000680fb000100200000abb900d3
:104ee8000401b800d2b79f00e3b79f0083014300d5
:104ef800e3b79f005fb29700efb297000802420045
:104f080089824a00f4b79f0085bf9f00044d98002e
:104f1800ffb29700482ade00144d98000ff397005f
:104f2800264d98008fbb9700483ade00344d980014
:104f3800110120000e007800acf40700b0b79f0004
:104f48006fe19700226d980080017800481ade0012
:104f5800346d9800310120000e007800a3f407009a
:104f68006104b800e00f5400e08f5c0004003a00d0
:104f7800010220000e007800a5f407000004be001e
:104f8800b10020000e00780098f40700c0b79f0019
:104f9800400220004fb29700e00f52005f0032003d
:104fa80084027800618262005c003a003fb3970097
:104fb8004530dd000000e90005004000110009004f
:104fc8000580d8006101b800e2af9f00f3af9f00f1
:104fd8000fb297009fb297000400540085805c00d0
:104fe8005fb39700efb39700060050008780580022
:104ff8000200500083805800cfe397000781fb0030
:105008000300200089ed0700405598004802de00a3
:105018005455980061559800480ade007455980068
:1050280042ff200003002000820f5000838f5800a9
:1050380003003e0014c0b300646d980020003700e0
:1050480044ff2f0005002000840f5000858f580072
:1050580003003e0024c0b300646d980018003700b8
:1050680034c0b300646d9800c10220000e007800bf
:1050780067f40700404d98004802de00544d980040
:10508800614d9800480ade00744d98006fab970098
:10509800ffab97007fb197008fb9970006004100da
:1050a80087804900005598004802de001455980092
:1050b80021559800480ade00345598001100370041
:1050c8000042eb00444d9800544d9800644d980000
:1050d800744d9800bfb19700441ade007fb3970063
:1050e8008fbb970004024300e0824b0004559800f0
:1050f8004823de001655980025559800482ade00fa
:10510800345598004002200004202000cfb39700b7
:10511800848f530001003e000000eb006a6a900093
:10512800e34f520007003200e00f500061003200e8
:10513800abc2900084cdb30004c24200e14f5200dc
:105148005c003e00bb5290008582fb004b529000f1
:105158004822dd000482720008003a00abc29000c9
:1051680084cdb30004c24200e14f520005003e0066
:10517800e00f50004f0032000300370030002000dd
:105188000100370030002000e0cf560025003a002b
:105198006a6290000482fb007a6390004833dd0065
:1051a800060372000a6290000482fb009a60900075
:1051b800c808dd00810072002b7290000482fb0099
:1051c8003b7190004811dd00020172009a4178009d
:1051d8008383fb001a4090004800dd0000827300c2
:1051e800aa4390008783fb003a4090004800dd0006
:1051f8008082730002014200e0814a000a6a90003e
:105208000482fb001a6890004800dd00000072006c
:105218004602900004000100e04f5000dcfe3a0016
:1052280023003700e04f560022003a00ea6290005f
:105238008582fb007a6290004822dd0004827200b9
:105248008a6290008582fb009a609000c808dd00a1
:10525800818072001a4378008682fb001a4390000e
:105268004833dd0006817200aa4290008582fb0067
:105278003a4390004833dd008681720066014100a0
:10528800e08149008a6a90008582fb001a689000d4
:105298004800dd0000807200440290000400010014
:1052a800e04f5000b9fe3a008000200001003700ae
:1052b800800020004f0778004f06be004f05be0053
:1052c8004f04be008f01b10000000600889fbe0099
:1052d8008a9fbe0080457800010578008204780026
:1052e8000b407800dfee070000047800e00f540060
:1052f80010003a003002200064c9200014427800ef
:10530800e04f52004b003200966cef008b42780061
:1053180054c92000054a7800a6c820000a4b780026
:105328004852de0004437800b5c82000864a780059
:1053380048c62000a20ca900a22ca9000082eb00fc
:105348008082eb00d4648800e5648800f4648800f7
:1053580005658800096c9800484ade00146c9800be
:105368001a02780009007800040001002a0290005f
:1053780009007800040001000002780060002000a5
:105388008002eb00948f120026003a0094029000ed
:10539800e18262002a003200240390000700200006
:1053a800065c9800c832de00155c9800275c9800ff
:1053b800c83ade00355c9800a40290000420200062
:1053c800848f52001e0036007e0040001500370012
:1053d8000800780030fe0700e00f500011003a0086
:1053e80054658000e00f520012003a0058658800aa
:1053f800484b90000683fb00d84b9000c83bdd006b
:1054080007027300684b90000683fb00f84b90007e
:10541800c83bdd0087027300346588004565880055
:1054280004003700956cef0015c0b30066c9200072
:10543800054b78004f05be004f04be000000060073
:10544800080078009cee0700e00f5000f5ff3a00d6
:10545800dfff3700106b80004900dd004f00de00e1
:105468000000060004f02000456a80000502620082
:1054780010c3b3001600320005f02000446a800013
:105488008482620004402000848f520008003a00a1
:10549800040f2000456a8000050262000040e90010
:1054a800f00f52000a003a006a4040000800370036
:1054b80005f02000446a80008482620020c3b300a3
:1054c80004502000848f520001003a0056cdbf00de
:1054d800000006000042780060c0b30055d52000e7
:1054e8009542780084cf520007003a0004f020006b
:1054f800456a80000502620030c0b3000200320035
:105508000000eb00406a88000000060000427800b6
:1055180060c0b30055d520009542780084cf520072
:1055280007003a00456a800030c0b30004412000fb
:10553800848f520002003a00482dec000040eb0036
:10554800000006000042780060c0b30055d5200076
:105558009542780084cf520009003a00456a8000dd
:1055680030c0b30004402000848f520004003a0089
:105578009404a90070024200446a88000040eb00cd
:1055880000000600556a8000150290000460a10022
:1055980094029800556a8000150290000450a100fa
:1055a80094029800664ded0066edb70004003200e5
:1055b80004ff2f0085d42000950a62000b003700f5
:1055c800674ded0067edb7000300320004112000bd
:1055d800446a88000500370075c0b30066d520000e
:1055e800054b780004502000446a8800000006003b
:1055f800ea874700889fbe008a9fbe008c9fbe0036
:105608008e1f7800004678008146780002477800af
:10561800830578001a6a8000290020000004eb0046
:105628004342dd006602420065d7200065027a0029
:105638000402d10061426200e14f520040003a008a
:105648004342dd006602420065027a004522de0020
:105658006142620004003a004342dd0065427a007c
:105668008c4f520036003a004342dd006602420089
:1056780065d7200065027a004422de00614262009c
:1056880005003a004342dd000482420014429000c3
:105698008d4f52002a003a004342dd006602420064
:1056a80065d7200065027a004322de00614262006d
:1056b80005003a004342dd000482e80065427a00b2
:1056c8008e4f52001e003a000a4a90000482fb00e6
:1056d8009a4a9000c82add0084827200d5b79f00dc
:1056e800aa4a90008582fb003a4a90004822dd00d1
:1056f80004827200e4b79f00ecef9f00fdef9f006b
:105708008ef79f0084002000050020007681570056
:105718009107200000c0eb00ca200700e04f5000ae
:1057280007003a004344dd00a4d7200004024400e7
:1057380014429000844d780010c0b3000400370074
:105748000804e8008904e900b5ff3a000040eb00ce
:105758004f0778004f06be004f05be004f04be003d
:10576800af00b100000006000800fa00889fbe00e4
:105778008a9fbe008c1f7800196a800062cda9003c
:1057880062eda9002a0020000004eb009c0720001d
:105798000b0420004342dd006602420065d720006a
:1057a80065027a000402d1006142620015003200ed
:1057b8004342dd00e5427a004942900084cf52001e
:1057c80069003a004342dd0065d7200004824200a8
:1057d800944290005942900084cf520062003a00ef
:1057e8004342dd000482e80065d72000e5427a00e4
:1057f8006942900084cf52005b003a0062cda80055
:1058080059003700c342dd00094b90000683fb00b6
:10581800194a90004822dd000402730066d7200070
:10582800e6827a00848f520026003a00c342dd00e7
:105838008582e800294b90000683fb00394a9000d6
:105848004822dd000402730066d72000e6827a0051
:10585800848f52001b003a004342dd00660242007a
:1058680066027a004722de0061426200e14f520080
:1058780013003a0062eda800c342dd00060278007a
:1058880005034200d643900080d5200007487800e1
:10589800e682420064827a004222de0061426200af
:1058a800080032004342dd006402420065d7200050
:1058b80065437a0020d520000648780001003700ab
:1058c80062cda8004342dd0065d7200065027a005a
:1058d800e10f420024003a004342dd000482e80060
:1058e80065027a00e10f42001f003a00094a900061
:1058f8000482fb00994a9000c82add008482720065
:10590800f5b79f00294a90000482fb00b94a90002d
:10591800c82add000502720084bf9f00c342dd0073
:1059280064d72000e4c37a00a7f79f00050342006c
:1059380016439000b6f79f008582e800e4c27a001b
:10594800c5f79f00840020000500200072815700e1
:105958008c00780000c0eb003a200700e04f5000b0
:1059680001003a0062cda800106b8000008265003b
:1059780012003200c342dd0064d720000503420054
:105988005640900057edb700e682420064827a00e4
:105998004222de006142620010c0b3000b003200f8
:1059a8004342dd006402420065d72000e5437a00e7
:1059b80026d52000074b7800040037000804e800cb
:1059c8000a05e90073ff3a000040eb004f06780033
:1059d8004f05be004f04be000080fa00000006001c
:1059e80000427800e04f520002003a00006b80004d
:1059f80018003700f66a80000000eb00800f5300a3
:105a080014003200a6029000e08f52000d00320010
:105a180025009000e00f50000a003200a05a9000c4
:105a280084cf520004003a000a003700a05a9000c0
:105a380084cf52000700320010007800e00f5000b9
:105a4800faff3a0016037800e00f5300edff3a0022
:105a58000000eb0000000600889fbe00820478006a
:105a68000304780054d5200014427800804f520077
:105a78000600320064c0b300844c7800000ceb00d0
:105a88003814780010c0b3002200370001407800b5
:105a9800d3ff0700e00f50001b00320010029000f7
:105aa8004922de0061426200900290000510b200b7
